:100000006F102075130000001300000013000000A3
:100010001300000013000000130000001300000094
:100020001300000013000000130000001300000084
:08003000130000007300100032
:100038006FF09FFC000000006F00205C6F00E05C28
:1000480000000000000000000000000000000000A8
:100058000000000000000000000000000000000098
:100068006FF09FF9000000006FF01FF9000000001A
:100078006FF09FF86FF05FF86FF01FF86FF0DFF721
:100088006FF09FF76FF05FF76F0080156F00801DAE
:100098006F00407F6F00401F6F0000206FF0DFF59A
:1000A8006FF09FF56FF05FF56F00E0526FF0DFF4CF
:1000B8006FF09FF46FF05FF46F0080220000000083
:1000C8000000000000000000000000006F00C01DDC
:1000D8006F0000226F0000256F00C0276F00002D01
:1000E8006F00C0356F0000386F00C0446FF0DFF05C
:1000F8006FF09FF06FF05FF06FF01FF06FF0DFEFC1
:100108006FF09FEF6F0000466F0000496F00A0720C
:100118006F00001C6FF05FEE6FF01FEE6FF0DFED09
:1001280000000000000000000000000000000000C7
:080138000000000000000000BF
:100140003D432A876373C3029377F700BDEFADE5A4
:10015000937606FF3D8ABA960CC34CC30CC74CC7B6
:100160004107E36BD7FE11E28280B306C3408A06E3
:100170009702000096966780A6002307B700A306A3
:10018000B7002306B700A305B7002305B700A304F3
:10019000B7002304B700A303B7002303B700A302EB
:1001A000B7002302B700A301B7002301B700A300E3
:1001B000B7002300B700828093F5F50F9396850072
:1001C000D58D93960501D58D61B79396270097023B
:1001D000000096968682E78086FA9680C1171D8F6A
:1001E0003E96E374C3F8A5B7411122C60008054541
:1001F000EF10007E2A8785476315F70603A7019A4B
:10020000B16783A5070D3A85EFA00037AA873E871F
:1002100023A0E19A03A7019EB16783A5070D3A8544
:10022000EFA08035AA873E8723A0E19E03A701A205
:10023000B16783A5070D3A85EFA00034AA873E87F2
:1002400023A0E1A203A701A6B16783A5070D3A8504
:10025000EFA08032AA873E8723A0E1A60545EF10D4
:10026000807C01003244410173002030411122C6DC
:1002700000080945EF10C0752A8785476315F70008
:100280000945EF10407A01003244410173002030EB
:10029000411122C6000801003244410173002030A0
:1002A000411122C600080100324441017300203090
:1002B000411122C6000813050004EF1060712A875F
:1002C00085476316F70013050004EF10C0750100A1
:1002D0003244410173002030411122C60008010060
:1002E0003244410173002030411122C60008010050
:1002F0003244410173002030411122C600089305A9
:100300000008B7370140138507C0EF209061AA8726
:1003100089CB93050008B7370140138507C0EF204C
:10032000506701003244410173002030411122C660
:1003300000088545B7370140138507C0EF20705E80
:10034000AA8781CB8545B7370140138507C0EF20C9
:10035000506401003244410173002030411122C633
:10036000000893050004B7370140138507C0EF204C
:10037000505BAA8789CB93050004B73701401385EA
:1003800007C0EF20106193050002B73701401385C5
:1003900007C0EF201059AA8789CB93050002B73711
:1003A0000140138507C0EF20D05E010032444101B7
:1003B00073002030411122C600088945B73701403B
:1003C000138507C0EF20F055AA8781CB8945B73741
:1003D0000140138507C0EF20D05B9145B73701403E
:1003E000138507C0EF20F053AA8781CB9145B7371B
:1003F0000140138507C0EF20D059A145B737014010
:10040000138507C0EF20F051AA8781CBA145B737EC
:100410000140138507C0EF20D057C145B7370140D1
:10042000138507C0EF20F04FAA8781CBC145B737AE
:100430000140138507C0EF20D0550100324441012F
:1004400073002030411122C6000885453705004061
:10045000EF20304DAA8791C7854537050040EF2032
:10046000505301003244410173002030411122C633
:1004700000088545B707004013850740EF20704A04
:10048000AA87C5CB8545B707004013850740EF20F5
:10049000505013059004EF302058AA871397070196
:1004A0004187239CE18213058004EF30206AAA87EC
:1004B000139707014187938781832391E7002145A3
:1004C000EF30007CAA8713970701418793878183C8
:1004D0002393E7001305C002EF30D00DAA871397CE
:1004E00007014187938781832392E7000397618700
:1004F00089476315F700054723A4E18203A781829A
:1005000085476318F70203A8418983A701898545B8
:100510000146B386B70036853335F5003307C8008A
:10052000B307E5003E87B6873A8823A8F18823AA57
:10053000018901003244410173002030411122C67B
:1005400000088545B717004013850780EF20703DF0
:10055000AA8781CB8545B717004013850780EF2018
:10056000504301003244410173002030411122C642
:10057000000893055052B757004013850780EF30AD
:100580004003AA8789CB93055052B7570040138583
:100590000780EF3020120100324441017300203007
:1005A000411122C6000893055052B74700401385F9
:1005B0000740EF300000AA8791CF93055052B7470C
:1005C000004013850740EF30E00E9385C18205455A
:1005D000EF60401A010032444101730020304111A4
:1005E00022C600080965EF10601E2A87854763153B
:1005F000F7000965EF104023010032444101730008
:100600002030411122C6000801003244410173002C
:100610002030411122C6000801A0011122CE001095
:10062000AA87A307F4FE83C7E18413871700937694
:10063000F70F2387D1843E8793874194BA97034766
:10064000F4FE2380E70003C7E1848547631DF700BC
:1006500003C741949307800D6307F7002387018444
:100660000947238AE18203C7E184B5476316F7028D
:100670000547238AE1829387419403C7C700930704
:10068000E00E6316F7000547238AE18221A00D479B
:10069000238AE182238701840100724405618280FC
:1006A000011106CE22CC00102326A4FE8327C4FE0F
:1006B000850703C707009307000B6318F70283271A
:1006C000C4FE890783C70700A20713970701418764
:1006D0008327C4FE8D0783C70700C207C187D98F50
:1006E000139707014187239BE1868327C4FE910767
:1006F00003C707009307100B6318F7028327C4FE94
:10070000950783C70700A20713970701418783272F
:10071000C4FE990783C70700C207C187D98F139703
:10072000070141872393E1848327C4FE9D0703C704
:1007300007009307200B6318F7028327C4FEA10765
:1007400083C70700A2071397070141878327C4FEC9
:10075000A50783C70700C207C187D98F1397070171
:1007600041872392E1848327C4FEA90703C70700BA
:100770009307300B631CF7008327C4FEAD0783C7C4
:100780000700139707014187239AE18683978186A3
:100790003E85EF90203BB16703A6870D83A6C70D6A
:1007A000EF806074AA872E883E85C285EF90003363
:1007B000AA871397070141872394E1868397A1862F
:1007C0003E85EF902038B16703A6870D83A6C70D3D
:1007D000EF806071AA872E883E85C285EF90003039
:1007E000AA871397070141872395E1868397C186DE
:1007F0003E85EFA0601CAA873E85EFA02035B1673B
:1008000003A6070E83A6470EEF80E06DAA872E8809
:100810003E85C285B16703A6870E83A6C70EEF701B
:10082000507FAA872E883E85C285EFA0E03C2A87AC
:1008300023A8E1820100F240624405618280011137
:1008400022CE001093055052B75700401385078001
:10085000EF203056AA8795C793055052B7570040EE
:1008600013850780EF201065B75700401385078078
:10087000EF20704DAA87A307F4FE8347F4FE3E8560
:10088000693B01007244056173002030411122C6AA
:1008900000081145EF10C0132A878547E311F71EA2
:1008A0001145EF104018010083C7418313F7F70F7C
:1008B0008547E31BF7FE238A018213854194CD33DC
:1008C000EF601006B707002003C747072384E184C1
:1008D00003C75180A384E18403C761802385E18439
:1008E00013050002EF40B046AA873E87B7070020F5
:1008F000238AE70613051002EF407045AA873E875A
:10090000A382E18013052002EF407044AA873E874E
:100910002383E180B707002083C7470799C783C7B0
:10092000818481E70547A385E18483C7518099C706
:1009300083C7918481E705472386E18483C761806B
:1009400099C783C7A18481E70547A386E18483C74C
:10095000B184638F0746A385018483A701853D4742
:10096000636DF72613972700B1679387871EBA97A1
:100970009C438287B707002083970707C207C1837C
:100980009507C207C183139707014187B707002066
:100990002398E70699A403A7019AB16783A5070FD7
:1009A0003A85EF904021AA873E8723A0E19A35A49B
:1009B0009387019ADC433E85EFA04019B16703A6F7
:1009C000870F83A6C70FEF70C071AA872E883E8558
:1009D000C285EFA060222A879387019AD8C3F5AA1F
:1009E00083A701AA3E85EFA06016B16703A6870F13
:1009F00083A6C70FEF70E06EAA872E883E85C2855A
:100A0000EFA0801F2A8723A0E1AAC1AA938701AA89
:100A10009C473E85EFA08013B16703A6870F83A68E
:100A2000C70FEF70006CAA872E883E85C285EFA0A5
:100A3000A01C2A87938701AA98C745A2839701849F
:100A4000C207C1839507C207C18313970701418776
:100A50002390E18459A283A701D23E85EFA0000F25
:100A6000B16703A6870F83A6C70FEF708067AA87B9
:100A70002E883E85C285EFA020182A8723A0E1D2C8
:100A8000A9AA938701D29C473E85EFA0200CB167AD
:100A900003A6870F83A6C70FEF70A064AA872E88CE
:100AA0003E85C285EFA040152A87938701D298C75B
:100AB0002DA203A701C2B16783A5070F3A85EF9066
:100AC000800FAA873E8723A0E1C201AA938701C2B3
:100AD000DC433E85EFA08007B16703A6870F83A69E
:100AE000C70FEF700060AA872E883E85C285EFA0F1
:100AF000A0102A87938701C2D8C3C5A003A701C647
:100B0000B16783A5070F3A85EF90E00AAA873E8771
:100B100023A0E1C6D9A0938701C6DC433E85EFA0A0
:100B2000E002B16703A6870F83A6C70FEF70605B73
:100B3000AA872E883E85C285EFA0000C2A8793875E
:100B400001C6D8C359A803A701CAB16783A5070F77
:100B50003A85EF904006AA873E8723A0E1CAB5A850
:100B6000938701CADC433E85EF90507EB16703A6B0
:100B7000870F83A6C70FEF70C056AA872E883E85C1
:100B8000C285EFA060072A87938701CAD8C3B1A0A6
:100B900003A701CEB16783A5070F3A85EF90A001A7
:100BA000AA873E8723A0E1CE0DA8938701CEDC4320
:100BB0003E85EF90B079B16703A6870F83A6C70F74
:100BC000EF702052AA872E883E85C285EFA0C00212
:100BD0002A87938701CED8C3010003A701D2B1674A
:100BE00083A507103A85EF90E06FAA873E85EF90C6
:100BF00050572A8723A2E18AB70700208397070767
:100C00003E879387418AD8C303A7019AB16783A51A
:100C100007103A85EF90006DAA873E85EF907054DB
:100C20002A879387418A98C79387019AD843B167E7
:100C300083A507103A85EF90E06AAA873E85EF907A
:100C400050522A879387418AD8C7938701D2984701
:100C5000B16783A507103A85EF90C068AA873E85E3
:100C6000EF9030502A879387418A98CB03A701AA37
:100C7000B16783A507103A85EF90C066AA873E85C5
:100C8000EF90304E2A879387418AD8CB938701AA69
:100C90009847B16783A507103A85EF90A064AA87AB
:100CA0003E85EF90104C2A879387418A98CF83978F
:100CB00001843E879387418AD8CF03A701C2B167D9
:100CC00083A507103A85EF90E061AA873E85EF90F3
:100CD00050492A879387418A98D3938701C2D84382
:100CE000B16783A507103A85EF90C05FAA873E855C
:100CF000EF9030472A879387418AD8D303A701C64C
:100D0000B16783A507103A85EF90C05DAA873E853D
:100D1000EF9030452A879387418A98D7938701C6F9
:100D2000D843B16783A507103A85EF90A05BAA87E7
:100D30003E85EF9010432A879387418AD8D703A72F
:100D400001CAB16783A507103A85EF90A059AA8719
:100D50003E85EF9010412A879387418A98DB9387DD
:100D600001CAD843B16783A507103A85EF90805731
:100D7000AA873E85EF90F03E2A879387418AD8DB89
:100D800003A701CEB16783A507103A85EF90805580
:100D9000AA873E85EF90F03C2A879387418A98DFA7
:100DA000938701CED843B16783A507103A85EF90AA
:100DB0006053AA873E85EF90D03A2A879387418A6D
:100DC000D8DFD1461386418A81453D45EF40404BEF
:100DD00083C7C184638F07462386018483A7018567
:100DE0003D47636DF72613972700B16793878722E6
:100DF000BA979C438287B707002083970707C207EB
:100E0000C183ED17C207C183139707014187B70755
:100E100000202398E70699A403A7019AB16783A548
:100E2000070F3A85EF904075AA873E8723A0E19A85
:100E300035A49387019ADC433E85EF903051B1672A
:100E400003A6870F83A6C70FEF806055AA872E8859
:100E50003E85C285EF90505A2A879387019AD8C35E
:100E6000F5AA83A701AA3E85EF90504EB16703A66D
:100E7000870F83A6C70FEF808052AA872E883E85F2
:100E8000C285EF9070572A8723A0E1AAC1AA938751
:100E900001AA9C473E85EF90704BB16703A6870F70
:100EA00083A6C70FEF80A04FAA872E883E85C285F4
:100EB000EF9090542A87938701AA98C745A28397F9
:100EC0000184C207C183ED17C207C18313970701CD
:100ED00041872390E18459A283A701D23E85EF90F8
:100EE000F046B16703A6870F83A6C70FEF80204B9C
:100EF000AA872E883E85C285EF9010502A8723A0AE
:100F0000E1D2A9AA938701D29C473E85EF90104475
:100F1000B16703A6870F83A6C70FEF804048AA8753
:100F20002E883E85C285EF90304D2A87938701D267
:100F300098C72DA203A701C2B16783A5070F3A8501
:100F4000EF908063AA873E8723A0E1C201AA93871E
:100F500001C2DC433E85EF90703FB16703A6870F67
:100F600083A6C70FEF80A043AA872E883E85C2853F
:100F7000EF9090482A87938701C2D8C3C5A003A7E2
:100F800001C6B16783A5070F3A85EF90E05EAA8797
:100F90003E8723A0E1C6D9A0938701C6DC433E85E6
:100FA000EF90D03AB16703A6870F83A6C70FEF80F3
:100FB000003FAA872E883E85C285EF90F0432A879E
:100FC000938701C6D8C359A803A701CAB16783A5EF
:100FD000070F3A85EF90405AAA873E8723A0E1CABF
:100FE000B5A8938701CADC433E85EF903036B167E0
:100FF00003A6870F83A6C70FEF80603AAA872E88C3
:101000003E85C285EF90503F2A87938701CAD8C397
:10101000B1A003A701CEB16783A5070F3A85EF9072
:10102000A055AA873E8723A0E1CE0DA8938701CEC5
:10103000DC433E85EF909031B16703A6870F83A60E
:10104000C70FEF80C035AA872E883E85C285EF90F6
:10105000B03A2A87938701CED8C3010003A701D2F3
:10106000B16783A507103A85EF90C027AA873E8510
:10107000EF90300F2A8723A2E18AB70700208397D9
:1010800007073E879387418AD8C303A7019AB167B0
:1010900083A507103A85EF90E024AA873E85EF905C
:1010A000500C2A879387418A98C79387019AD8431F
:1010B000B16783A507103A85EF90C022AA873E85C5
:1010C000EF90300A2A879387418AD8C7938701D245
:1010D0009847B16783A507103A85EF90A020AA87AB
:1010E0003E85EF9010082A879387418A98CB03A703
:1010F00001AAB16783A507103A85EF90A01EAA87C1
:101100003E85EF9010062A879387418AD8CB938734
:1011100001AA9847B16783A507103A85EF90801C14
:10112000AA873E85EF90F0032A879387418A98CF5C
:10113000839701843E879387418AD8CF03A701C252
:10114000B16783A507103A85EF90C019AA873E853D
:10115000EF9030012A879387418A98D3938701C201
:10116000D843B16783A507103A85EF90A017AA87E7
:101170003E85EF90007F2A879387418AD8D303A7C3
:1011800001C6B16783A507103A85EF90A015AA871D
:101190003E85EF90007D2A879387418A98D7938771
:1011A00001C6D843B16783A507103A85EF90801335
:1011B000AA873E85EF90E07A2A879387418AD8D71D
:1011C00003A701CAB16783A507103A85EF90801184
:1011D000AA873E85EF90E0782A879387418A98DB3B
:1011E000938701CAD843B16783A507103A85EF906A
:1011F000600FAA873E85EF90C0762A879387418A41
:10120000D8DB03A701CEB16783A507103A85EF901D
:10121000600DAA873E85EF90C0742A879387418A24
:1012200098DF938701CED843B16783A507103A852D
:10123000EF90400BAA873E85EF90A0722A87938794
:10124000418AD8DFD1461386418A81453D45EF402A
:10125000200383C7D18485C383A701851387170023
:1012600023A8E18403A70185C14763D4E70023A82D
:101270000184A386018483A701853E853120010076
:101280003244410173002030797106D622D400180F
:10129000232EA4FCB7070020839707073E868145CD
:1012A00013052003EF30E04783A7019A3E85EF90B6
:1012B000F0092A86AE86894709478545130520032C
:1012C000EF30E05D9387019ADC433E85EF90100894
:1012D0002A86AE8689470947894513052003EF30E2
:1012E000005C83A701AA3E85EF9050062A86AE8651
:1012F000894709478D4513052003EF30405A9387EE
:1013000001AA9C473E85EF9070042A86AE868947E5
:101310000947914513052003EF30605883970184F6
:101320003E86954513052003EF30A03F83A701D2E9
:101330003E85EF90B0012A86AE86894709479945D8
:1013400013052003EF30A055938701D29C473E85BB
:10135000EF90C07F2A86AE86894709479D451305D1
:101360002003EF30C05383974187E207E1873E8631
:10137000814513054006EF30A02783A701C23E85B3
:10138000EF90C07C2A86AE8689470D4781451305BC
:101390006009EF30C050938701C2DC433E85EF9077
:1013A000E07A2A86AE8689470D4785451305600990
:1013B000EF30E04E83A701C63E85EF9020792A8664
:1013C000AE8689470D47894513056009EF30204DEA
:1013D000938701C6DC433E85EF9040772A86AE8630
:1013E00089470D478D4513056009EF30404B83A7B2
:1013F00001CA3E85EF9080752A86AE8689470D47E3
:10140000914513056009EF308049938701CADC4399
:101410003E85EF90A0732A86AE8689470D47954595
:1014200013056009EF30A04783A701CE3E85EF90FA
:10143000E0712A86AE8689470D47994513056009F4
:10144000EF30E045938701CEDC433E85EF9000709E
:101450002A86AE8689470D479D4513056009EF3002
:1014600000440327C4FD9D4763D7E7008327C4FDDD
:10147000E117232EF4FC91472326F4FE31AC832799
:10148000C4FDC207C18392071397070141838327D5
:10149000C4FEC207C183BA97139707014183C1678E
:1014A0001386F7FFBA850145EF20D0798327C4FD65
:1014B000C207C18392071397070141838327C4FEA4
:1014C000C207C183BA97139707014183C167138687
:1014D000F7FFBA850545EF20F0768327C4FDC207E4
:1014E000C18392071397070141838327C4FEC20774
:1014F000C183BA97139707014183C1671386F7FF2A
:10150000BA850945EF2010748327C4FDC207C18343
:1015100092071397070141838327C4FEC207C18343
:10152000BA97139707014183C1671386F7FFBA85FE
:101530000D45EF2030718327C4FDC207C183920798
:101540001397070141838327C4FEC207C183BA975B
:10155000139707014183C1671386F7FFBA851145C9
:10156000EF20506E8327C4FDC207C18392071397F3
:10157000070141838327C4FEC207C183BA9713972B
:1015800007014183C1671386F7FFBA851545EF2030
:10159000706B83A741850327C4FD630AF70E83A7F9
:1015A0004185C207C18392071397070141838327AF
:1015B000C4FEC207C183BA97C207C1830146BE8574
:1015C0000145EF20306883A74185C207C183920798
:1015D0001397070141838327C4FEC207C183BA97CB
:1015E000C207C1830146BE850545EF20B06583A7CC
:1015F0004185C207C183920713970701418383275F
:10160000C4FEC207C183BA97C207C1830146BE8523
:101610000945EF20306383A74185C207C183920744
:101620001397070141838327C4FEC207C183BA977A
:10163000C207C1830146BE850D45EF20B06083A778
:101640004185C207C183920713970701418383270E
:10165000C4FEC207C183BA97C207C1830146BE85D3
:101660001145EF20305E83A74185C207C1839207F1
:101670001397070141838327C4FEC207C183BA972A
:10168000C207C1830146BE851545EF20B05B8327A5
:10169000C4FE85072326F4FE0327C4FEB147E3D02A
:1016A000E7DE0327C4FD23AAE1840100B2502254DF
:1016B00045618280411106C622C40008EF40C00483
:1016C000EF50E010EF20701B1306602293052003FB
:1016D00013050010EF40E058EF504037EF50404006
:1016E00089450945EF40C0088546014681451305F7
:1016F000D002EF305073C5464146F167938507200D
:101700000545EF40D0719306100213060002F16701
:10171000938507200945EF40907085450945EF50B6
:10172000600085460546814513057003EF30B06FB4
:1017300013068004A14513052006EF30B0668546E8
:10174000054685456145EF30106E0145EF30B07FAD
:1017500001A097F1FF1F9381E111174100201301B0
:10176000618A17B500001305E55F97F5FF1F9385A4
:1017700065891386818263FAC5008322050023A050
:10178000550011059105E3EAC5FE13858182938515
:1017900041D66377B500232005001105E36DB5FE42
:1017A0009302800873A0023097F2FFFF93820289B0
:1017B00093E2120073905230EF50602197020000C4
:1017C000938282EF7390123473002030797122D6A5
:1017D0000018232EA4FC232604FE232404FE032742
:1017E000C4FDB7070010F98F89CBB7070240938774
:1017F00007409C432324F4FE31A0B70702409C43DA
:101800002324F4FE032784FE8327C4FDF98F89C7B0
:1018100085472326F4FE19A0232604FE8327C4FE51
:101820003E85325445618280011122CE001023266C
:10183000A4FE0327C4FEB7070010F98F89CBB707B2
:101840000240938707400327C4FED8C331A0B707DF
:1018500002400327C4FED8C30100724405618280A0
:10186000797122D60018232EA4FC232604FEB70784
:101870000140938707402326F4FE8327C4FDDC47FD
:1018800063800712B707014093870740944383277B
:10189000C4FD9C4313C7F7FFB70701409387074078
:1018A000758F98C3B707014093870740D4438327B8
:1018B000C4FD9C4313C7F7FFB70701409387074058
:1018C000758FD8C38327C4FDDC430327C4FEBA97B2
:1018D0002326F4FE8327C4FE94438327C4FD984344
:1018E0008327C4FE558F98C3B707014093870740ED
:1018F00094478327C4FD9C4313C7F7FFB7070140F4
:1019000093870740758F98C7B707014093870740B3
:10191000D4478327C4FD9C4313C7F7FFB707014093
:1019200093870740758FD8C78327C4FD9847C14761
:10193000631FF702B7070140938707409447832747
:10194000C4FD9843B707014093870740558F98C758
:10195000B707014093870740D4478327C4FD9843C6
:10196000B707014093870740558FD8C7B1A8B7077D
:101970000140938707402326F4FE8327C4FD9C473C
:101980000327C4FEBA972326F4FE8327C4FE94439C
:101990008327C4FD98438327C4FE558F98C32DA089
:1019A0008327C4FDDC430327C4FEBA972326F4FE35
:1019B0008327C4FE94438327C4FD9C4313C7F7FFCA
:1019C0008327C4FE758F98C301003254456182801D
:1019D000797122D60018232EA4FC232604FE23248A
:1019E00004FEB7070140938707409C430327C4FDCB
:1019F000F98F2324F4FEB707014093870740D84BA3
:101A00008327C4FDF98F81CB832784FE89C785474F
:101A10002326F4FE19A0232604FE8327C4FE3E8558
:101A2000325445618280011122CE00102326A4FE8B
:101A3000B7070140938707400327C4FED8CB0100B6
:101A4000724405618280411122C60008B727024016
:101A50003707674513073712D8C3B72702403797B0
:101A6000EFCD1307B79AD8C30100324441018280F9
:101A7000411122C60008B7270240984BB727024001
:101A80001367070898CB01003244410182807971C5
:101A900006D622D40018232EA4FC91472326F4FE58
:101AA00037050B00D1222326A4FE0327C4FE91474D
:101AB0006315F704B7270240984BB7270240136716
:101AC000270098CBB72702400327C4FDD8CBB72700
:101AD0000240984BB72702401367070498CB37059D
:101AE0000B0059222326A4FEB7270240944BB727A8
:101AF000024009677517758F98CB8327C4FD13F7CC
:101B0000C7FF8567B98F3E87B72702409387470392
:101B1000184398C38327C4FE3E85B25022544561C2
:101B20008280797106D622D40018232EA4FC232C9F
:101B3000B4FC91472326F4FE232404FE09652D22DC
:101B40002326A4FE0327C4FE91476310F708B72796
:101B50000240984BB72702401367170098CB8327A2
:101B6000C4FD032784FD420741832390E7000965F4
:101B7000E5282326A4FE0327C4FE9147631EF7022F
:101B80008327C4FD89072324F4FE832784FDC183B2
:101B9000032784FEC207C1832310F7000965E920EB
:101BA0002326A4FEB7270240944BB72702400967BB
:101BB0007917758F98CB11A8B7270240944BB72798
:101BC000024009677917758F98CB8327C4FD13F7F7
:101BD000C7FF8567B98F3E87B727024093874703C2
:101BE000184398C38327C4FE3E85B25022544561F2
:101BF0008280011122CE00102326A4FEB7270240C6
:101C00000327C4FED8C70100724405618280011118
:101C100022CE001091472326F4FEB7270240DC476E
:101C200013F7170085476316F70085472326F4FE50
:101C300035A0B7270240DC47918B89C78947232607
:101C4000F4FE29A8B7270240DC47C18B89C78D471E
:101C50002326F4FE21A091472326F4FE8327C4FE09
:101C60003E85724405618280797106D622D40018BF
:101C7000232EA4FC91472326F4FEEFF05FF92326E0
:101C8000A4FE11A8EFF0BFF82326A4FE8327C4FD0D
:101C9000FD17232EF4FC0327C4FE85476315F700C8
:101CA0008327C4FDE5F38327C4FD81E795472326F9
:101CB000F4FE8327C4FE3E85B250225445618280E3
:101CC000397122DE80002326A4FC2324B4FC2326C1
:101CD00004FE232004FE232404FE232E04FC2322DE
:101CE00004FE232C04FC832784FC9C47BD8B232605
:101CF000F4FE832784FC9C47C18B89CB832784FC1B
:101D0000DC430327C4FED98F2326F4FE832784FCFB
:101D100083D7070093F7F70FF1CF8327C4FC9C43C9
:101D20002322F4FE232404FE65A8832784FE0547AE
:101D3000B317F700232EF4FC832784FC83D7070016
:101D40003E878327C4FDF98F2320F4FE032704FE7A
:101D50008327C4FD6311F708832784FE8A07232E97
:101D6000F4FC8327C4FD3D47B317F700232CF4FC94
:101D7000832784FD93C7F7FF032744FEF98F2322AF
:101D8000F4FE8327C4FD0327C4FEB317F70003271F
:101D900044FED98F2322F4FE832784FC98479307BF
:101DA0008002631BF700832784FE05473317F70083
:101DB0008327C4FCD8CB05A0832784FC98479307CE
:101DC0008004631AF700832784FE05473317F70062
:101DD0008327C4FC98CB832784FE85072324F4FE45
:101DE000032784FE9D47E3F2E7F48327C4FC03271F
:101DF00044FE98C3832784FC03D707009307F00FA2
:101E000063F1E70E8327C4FCDC432322F4FE232482
:101E100004FE75A8832784FEA1070547B317F700C2
:101E2000232EF4FC832784FC83D707003E87832777
:101E3000C4FDF98F2320F4FE032704FE8327C4FD8D
:101E40006312F708832784FE8A07232EF4FC832776
:101E5000C4FD3D47B317F700232CF4FC832784FD12
:101E600093C7F7FF032744FEF98F2322F4FE83274D
:101E7000C4FD0327C4FEB317F700032744FED98F20
:101E80002322F4FE832784FC984793078002631B78
:101E9000F700832784FEA10705473317F700832740
:101EA000C4FCD8CB832784FC984793078004631B2A
:101EB000F700832784FEA10705473317F700832720
:101EC000C4FC98CB832784FE85072324F4FE0327D4
:101ED00084FE9D47E3F0E7F48327C4FC032744FE18
:101EE000D8C30100725421618280011122CE0010FA
:101EF0002326A4FEAE872322C4FE2315F4FE8327E7
:101F000044FE99C70357A4FE8327C4FE98CB31A093
:101F10000357A4FE8327C4FED8CB01007244056199
:101F20008280797122D60018232EA4FC232CB4FCC5
:101F3000232404FE232204FE232604FE232004FE81
:101F40008327C4FD63D80700B7070140DC4F232671
:101F5000F4FE31A0B7070140DC432326F4FE8327BB
:101F6000C4FDC183BD8B2320F4FE0327C4FDC167DC
:101F7000FD17F98F2324F4FE0327C4FDB7073000B3
:101F80007D8FB70730006315F7020327C4FEB7073C
:101F900000F1FD17F98F2326F4FEB7070140D44363
:101FA000B7070140370700F17D17758FD8C3ADA083
:101FB0000327C4FDB7071000F98F8DCB832704FEDC
:101FC0000D47B317F7002322F4FE832744FE93C77F
:101FD000F7FF0327C4FEF98F2326F4FE0327C4FE70
:101FE000B707000FD98F2326F4FE3DA08327C4FD39
:101FF000D5839207032784FEB317F70093C7F7FF33
:102000000327C4FEF98F2326F4FE0327C4FEB70777
:10201000000FD98F2326F4FE832784FD91CF8327D9
:10202000C4FDD5839207032784FEB317F700032767
:10203000C4FED98F2326F4FE8327C4FD63D807008E
:10204000B70701400327C4FED8CF31A0B70701402E
:102050000327C4FED8C301003254456182807971E0
:1020600022D60018AA872E87A30FF4FCBA87230F65
:10207000F4FC232604FE8347E4FD8D8B8A073D474D
:10208000B317F7002326F4FE370701408347E4FD2A
:10209000898393F7F70F8A07BA9798478327C4FE77
:1020A00093C7F7FFB70601400346E4FD09821376A4
:1020B000F60F7D8F93172600B69798C73707014014
:1020C0008347E4FD898393F7F70F8A07BA97984708
:1020D0008346F4FD8347E4FD8D8B8A07B397F600B2
:1020E000B70601400346E4FD09821376F60F5D8FC3
:1020F00093172600B69798C7010032544561828035
:10210000011122CE00102326A4FE8327C4FEFD8BDE
:102110000547B316F70037E700E08327C4FE958331
:10212000938707048A07BA9794C301007244056134
:102130008280011122CE00102326A4FE8327C4FE34
:10214000FD8B0547B316F70037E700E08327C4FE91
:102150009583938707068A07BA9794C30100724450
:1021600005618280011122CE00102326A4FEAE87D5
:10217000A305F4FE37E700E08327C4FEBA970347C0
:10218000B4FE2380E74001007244056182800111A2
:1021900006CE22CC00102326A4FEB7E700E0BC4701
:1021A000898B95C38327C4FE83C707003E87832797
:1021B000C4FE83C72700920793F7F70FBE853A85C1
:1021C000EFF05FFAA5A0B7E700E0BC47898BB9EF55
:1021D0008327C4FE03C7170085476319F7028327C7
:1021E000C4FE83C707003E878327C4FE83C727003A
:1021F0009207E207E18793E707F8E207E18793F7A1
:10220000F70FBE853A85EFF0FFF50DA08327C4FEDA
:1022100083C707003E878327C4FE83C72700920732
:1022200093F7F70FBE853A85EFF0DFF38327C4FEFF
:10223000DC4389CB8327C4FE83C707003E85EFF0CC
:102240003FEC01A88327C4FE83C707003E85EFF05B
:102250005FEE0100F240624405618280797122D60E
:102260000018232EA4FC232604FE232404FE23228C
:1022700004FE232004FEB7170240DC43B18B232663
:10228000F4FE0327C4FE91476302F7020327C4FE4E
:10229000A1476305F7028327C4FEC5E78327C4FD72
:1022A00037177A001307072098C365A08327C4FD5A
:1022B00037177A001307072098C361A8B7170240A1
:1022C000D843B7073C00F98F2324F4FEB717024028
:1022D000D843C167F98F2322F4FE832784FEC98384
:1022E00089072324F4FE832744FE89EF032784FE15
:1022F000B7173D00938707903307F7028327C4FD84
:1023000098C381A8B7170240D843B7070200F98FD6
:1023100089CF032784FEB7173D00938707903307C3
:10232000F7028327C4FD98C32DA0032784FEB717A7
:102330007A00938707203307F7028327C4FD98C3E9
:1023400009A88327C4FD37177A001307072098C30D
:102350000100B7170240DC4393F7070F2326F4FE72
:102360008327C4FE91832326F4FEB707002013873A
:1023700007008327C4FEBA9783C7070093F7F70FB8
:102380002320F4FE8327C4FD9843832704FE33579C
:10239000F7008327C4FDD8C3B7170240DC4393F787
:1023A00007702326F4FE8327C4FEA1832326F4FEB0
:1023B000B7070020138707008327C4FEBA9783C797
:1023C000070093F7F70F2320F4FE8327C4FDD843BB
:1023D000832704FE3357F7008327C4FD98C7B71738
:1023E0000240D843916793870780F98F2326F4FE34
:1023F0008327C4FEAD832326F4FEB707002013878E
:1024000007008327C4FEBA9783C7070093F7F70F27
:102410002320F4FE8327C4FDD843832704FE3357CB
:10242000F7008327C4FDD8C7B7170240D843B16768
:10243000F98F2326F4FE8327C4FEB9832326F4FEF6
:10244000138781808327C4FEBA9783C7070093F759
:10245000F70F2320F4FE8327C4FDD847832704FE0B
:102460003357F7028327C4FD98CB010032544561EE
:102470008280011122CE00102326A4FE2324B4FE64
:10248000832784FE99CBB7170240944FB7170240B9
:102490000327C4FE558F98CF21A8B7170240944F49
:1024A0008327C4FE13C7F7FFB7170240758F98CF75
:1024B0000100724405618280011122CE00102326A2
:1024C000A4FE2324B4FE832784FE99CBB7170240D1
:1024D000D44FB71702400327C4FE558FD8CF21A889
:1024E000B7170240D44F8327C4FE13C7F7FFB717AF
:1024F0000240758FD8CF01007244056182807971E6
:1025000022D60018232EA4FC232CB4FC231704FE8F
:102510008327C4FD83D707002317F4FE0357E4FE87
:102520008D6793870704F98F2317F4FE832784FDB3
:1025300003D70700832784FD83D72700D98F1397FC
:1025400007014183832784FD83D74700D98F1397E1
:1025500007014183832784FD83D76700D98F1397B1
:1025600007014183832784FD83D78700D98F139781
:1025700007014183832784FD83D7A700D98F139751
:1025800007014183832784FD83D7C700D98F139721
:1025900007014183832784FD83D7E700D98F1397F1
:1025A000070141838357E4FED98F2317F4FE832765
:1025B000C4FD0357E4FE2390E7008327C4FD83D7BF
:1025C000C701139707014183FD779387F77FF98F41
:1025D0001397070141838327C4FD239EE7008327C8
:1025E00084FD03D707018327C4FD2398E70001007A
:1025F000325445618280011122CE00102326A4FEB0
:102600002324B4FE832784FE8DC38327C4FE83D78F
:102610000700C207C18393E70704139707014183AB
:102620008327C4FE2390E70005A08327C4FE83D739
:102630000700C207C18393F7F7FB13970701418394
:102640008327C4FE2390E700010072440561828065
:10265000797122D60018232EA4FC232CB4FC231756
:1026600004FE8327C4FD83D707002317F4FE032746
:10267000C4FDB7370140938707C06308F7020327FB
:10268000C4FDB70700406302F7020327C4FDB70784
:10269000004093870740630AF7000327C4FDB7177C
:1026A0000040938707806311F7028357E4FE93F796
:1026B000F7F82317F4FE832784FD03D727008357F9
:1026C000E4FED98F2317F4FE8357E4FE93F7F7CF88
:1026D0002317F4FE832784FD03D767008357E4FEA6
:1026E000D98F2317F4FE8327C4FD0357E4FE2390FC
:1026F000E700832784FD03D747008327C4FD239683
:10270000E702832784FD03D707008327C4FD2394B2
:10271000E7020327C4FDB7370140938707C0631D55
:10272000F700832784FD83C7870013970701418340
:102730008327C4FD2398E7028327C4FD0547239A16
:10274000E7000100325445618280797122D6001879
:10275000232EA4FC232CB4FC231504FE231704FE13
:10276000231604FE8327C4FD83D70702C207C18353
:10277000F99B1397070141838327C4FD2390E70248
:102780008327C4FD83D707022317F4FE8327C4FDE4
:1027900083D747002316F4FE8327C4FD83D7870120
:1027A0002315F4FE8357A4FE93F7F7F82315F4FEE0
:1027B0008357A4FEF19B2315F4FE832784FD03D7E2
:1027C00007008357A4FED98F2315F4FE8357E4FE38
:1027D000F59B2317F4FE832784FD03D787008357D7
:1027E000E4FED98F2317F4FE832784FD03D7270047
:1027F0008357E4FED98F2317F4FE0327C4FDB737B0
:102800000140938707C0631CF7068357E4FEDD9BF6
:102810002317F4FE832784FD03D7A7008357E4FE24
:10282000D98F2317F4FE8357E4FEED9B2317F4FEA4
:10283000832784FD03D747008357E4FED98F2317EE
:10284000F4FE8357C4FE93F7F7EF2316F4FE835785
:10285000C4FE93F7F7DF2316F4FE832784FD03D726
:10286000C7008357C4FED98F2316F4FE832784FD47
:1028700003D7E7008357C4FED98F2316F4FE8327BE
:10288000C4FD0357C4FE2392E7008327C4FD03570A
:10289000A4FE239CE700832784FD03D767008327DA
:1028A000C4FD239AE7028327C4FD0357E4FE239067
:1028B000E7020100325445618280797122D6001806
:1028C000232EA4FC232CB4FC231504FE231704FEA2
:1028D000231604FE8327C4FD83D70702C207C183E2
:1028E000BD9B1397070141838327C4FD2390E70213
:1028F0008327C4FD83D707022317F4FE8327C4FD73
:1029000083D747002316F4FE8327C4FD83D78701AE
:102910002315F4FE0357A4FEE577FD17F98F231561
:10292000F4FE8357A4FE93F7F7CF2315F4FE832715
:1029300084FD83D70700A2071397070141838357BC
:10294000A4FED98F2315F4FE8357E4FE93F7F7FD19
:102950002317F4FE832784FD83D7870092071397FC
:10296000070141838357E4FED98F2317F4FE8327A1
:1029700084FD83D72700920713970701418383576C
:10298000E4FED98F2317F4FE0327C4FDB7370140B7
:10299000938707C06310F70A8357E4FE93F7F7F7AE
:1029A0002317F4FE832784FD83D7A700920713978C
:1029B000070141838357E4FED98F2317F4FE835721
:1029C000E4FE93F7F7FB2317F4FE832784FD83D7F8
:1029D000470092071397070141838357E4FED98F7D
:1029E0002317F4FE8357C4FE93F7F7BF2316F4FEB4
:1029F0000357C4FEFD779387F77FF98F2316F4FE04
:102A0000832784FD83D7C7008A0713970701418373
:102A10008357C4FED98F2316F4FE832784FD83D702
:102A2000E7008A071397070141838357C4FED98FB4
:102A30002316F4FE8327C4FD0357C4FE2392E70048
:102A40008327C4FD0357A4FE239CE700832784FD4E
:102A500003D767008327C4FD239CE7028327C4FDB7
:102A60000357E4FE2390E70201003254456182805F
:102A7000797122D60018232EA4FC232CB4FC231534
:102A800004FE231704FE231604FE8327C4FD83D708
:102A90000702C207C18393F7F7EF1397070141833A
:102AA0008327C4FD2390E7028327C4FD83D7070251
:102AB0002317F4FE8327C4FD83D747002316F4FEB3
:102AC0008327C4FD83D7C7012315F4FE8357A4FED3
:102AD00093F7F7F82315F4FE8357A4FEF19B231513
:102AE000F4FE832784FD03D707008357A4FED98F04
:102AF0002315F4FE8357E4FE93F7F7DF2317F4FE64
:102B0000832784FD83D78700A2071397070141839A
:102B10008357E4FED98F2317F4FE832784FD83D7E0
:102B20002700A2071397070141838357E4FED98F3B
:102B30002317F4FE0327C4FDB7370140938707C06E
:102B40006312F70A0357E4FEFD779387F77FF98F47
:102B50002317F4FE832784FD83D7A700A2071397CA
:102B6000070141838357E4FED98F2317F4FE83576F
:102B7000E4FE93F7F7BF2317F4FE832784FD83D782
:102B80004700A2071397070141838357E4FED98FBB
:102B90002317F4FE0357C4FEFD77FD17F98F2316A4
:102BA000F4FE0357C4FEF977FD17F98F2316F4FEE0
:102BB000832784FD83D7C7009207139707014183BA
:102BC0008357C4FED98F2316F4FE832784FD83D751
:102BD000E70092071397070141838357C4FED98FFB
:102BE0002316F4FE8327C4FD0357C4FE2392E70097
:102BF0008327C4FD0357A4FE239EE700832784FD9B
:102C000003D767008327C4FD239EE7028327C4FD03
:102C10000357E4FE2390E7020100325445618280AD
:102C2000797122D60018232EA4FC232CB4FC231681
:102C300004FE231504FE231704FE8327C4FD83D757
:102C40000702139707014183FD77FD17F98F13974B
:102C5000070141838327C4FD2390E7028327C4FD36
:102C600083D707022315F4FE8327C4FD83D74700CB
:102C70002317F4FE8327C4FD83D7C7012316F4FE70
:102C80000357C4FEE577FD17F98F2316F4FE83572B
:102C9000C4FE93F7F7CF2316F4FE832784FD83D772
:102CA0000700A2071397070141838357C4FED98FFA
:102CB0002316F4FE0357A4FEF977FD17F98F2315A9
:102CC000F4FE832784FD83D78700B207139707019B
:102CD00041838357A4FED98F2315F4FE832784FDF7
:102CE00083D72700B2071397070141838357A4FEB8
:102CF000D98F2315F4FE0327C4FDB737014093870E
:102D000007C06316F7020357E4FEF177FD17F98F4A
:102D10002317F4FE832784FD83D7C7009A071397F0
:102D2000070141838357E4FED98F2317F4FE8327DD
:102D3000C4FD0357E4FE2392E7008327C4FD035735
:102D4000C4FE239EE700832784FD03D76700832703
:102D5000C4FD2390E7048327C4FD0357A4FE2390FA
:102D6000E7020100325445618280011122CE001039
:102D70002326A4FE2324B4FE832784FE8DC3832749
:102D8000C4FE83D70700C207C18393E717001397D8
:102D9000070141838327C4FE2390E70039A88327D6
:102DA000C4FE83D70700C207C183F99B13970701AD
:102DB00041838327C4FE2390E7000100724405612C
:102DC0008280011122CE00102326A4FE2324B4FE0B
:102DD000832784FE95C38327C4FE83D747041397B4
:102DE00007014183E177D98F139707014183832737
:102DF000C4FE2392E70415A08327C4FE83D74704AB
:102E0000139707014183A167FD17F98F13970701F6
:102E100041838327C4FE2392E704010072440561C5
:102E20008280011122CE00102326A4FEAE87232229
:102E3000C4FE2315F4FE832744FE9DC38327C4FEEE
:102E400083D7C7001397070141838357A4FED98F07
:102E50001397070141838327C4FE2396E70035A01B
:102E60008327C4FE83D7C700139707014183835785
:102E7000A4FE93C7F7FFC207C183F98F1397070119
:102E800041838327C4FE2396E70001007244056155
:102E90008280797122D60018232EA4FCAE87231DD0
:102EA000F4FC231704FE8327C4FD83D7870123176F
:102EB000F4FE8357E4FEDD9B2317F4FE0357E4FE84
:102EC0008357A4FDD98F2317F4FE8327C4FD03572E
:102ED000E4FE239CE7000100325445618280797151
:102EE00022D60018232EA4FCAE87231DF4FC231742
:102EF00004FE8327C4FD83D787012317F4FE0357FD
:102F0000E4FEFD779387F77FF98F2317F4FE83574D
:102F1000A4FDA2071397070141838357E4FED98FCD
:102F20002317F4FE8327C4FD0357E4FE239CE70028
:102F30000100325445618280797122D60018232E17
:102F4000A4FCAE87231DF4FC231704FE8327C4FDD5
:102F500083D7C7012317F4FE8357E4FEDD9B2317B5
:102F6000F4FE0357E4FE8357A4FDD98F2317F4FE24
:102F70008327C4FD0357E4FE239EE700010032547B
:102F800045618280797122D60018232EA4FCAE8779
:102F9000231DF4FC231704FE8327C4FD83D7C70138
:102FA0002317F4FE0357E4FEFD779387F77FF98F2D
:102FB0002317F4FE8357A4FDA2071397070141834B
:102FC0008357E4FED98F2317F4FE8327C4FD0357EC
:102FD000E4FE239EE700010032544561828079714E
:102FE00022D60018232EA4FCAE87231DF4FC231741
:102FF00004FE8327C4FD83D787012317F4FE83577C
:10300000E4FEED9B2317F4FE0357E4FE8357A4FD73
:10301000D98F2317F4FE8327C4FD0357E4FE239CB6
:10302000E7000100325445618280797122D6001890
:10303000232EA4FCAE87231DF4FC231704FE832754
:10304000C4FD83D787012317F4FE8357E4FE93F76B
:10305000F7BF2317F4FE8357A4FDA20713970701B8
:1030600041838357E4FED98F2317F4FE8327C4FDE1
:103070000357E4FE239CE70001003254456182803F
:10308000797122D60018232EA4FCAE87231DF4FCF0
:10309000231704FE8327C4FD83D7C7012317F4FE3B
:1030A0008357E4FEED9B2317F4FE0357E4FE83579A
:1030B000A4FDD98F2317F4FE8327C4FD0357E4FE34
:1030C000239EE7000100325445618280797122D647
:1030D0000018232EA4FCAE87231DF4FC231704FE46
:1030E0008327C4FD83D7C7012317F4FE8357E4FE6B
:1030F00093F7F7BF2317F4FE8357A4FDA207139796
:10310000070141838357E4FED98F2317F4FE8327F9
:10311000C4FD0357E4FE239EE700010032544561DD
:103120008280797122D60018232EA4FCAE87231D3D
:10313000F4FC232604FE231504FE231404FE832737
:10314000C4FD83D707011397070141838357A4FD6B
:10315000F98F2315F4FE8327C4FD83D7C700139787
:10316000070141838357A4FDF98F2314F4FE83578D
:10317000A4FE81CB835784FE89C785472326F4FEAE
:1031800019A0232604FE8327C4FE3E8532544561E0
:103190008280011122CE00102326A4FEAE872315C3
:1031A000F4FE8357A4FE93C7F7FF139707014183EB
:1031B0008327C4FE2398E7000100724405618280E2
:1031C0005D7186C6A2C48008232EA4FA232CB4FA0B
:1031D000232604FE232404FE232204FE232004FECF
:1031E000232E04FC8327C4FB232EF4FC8327C4FB7B
:1031F00083D70701C207C1832326F4FE0327C4FE39
:10320000B567FD17F98F2326F4FE832784FB83D748
:1032100067003E878327C4FED98F2326F4FE8327C9
:10322000C4FE1397070141838327C4FB2398E7005B
:103230008327C4FB83D7C700C207C1832326F4FEBC
:103240000327C4FEBD679387379FF98F2326F4FEBB
:10325000832784FB03D74700832784FB83D787001A
:10326000D98F139707014183832784FB83D7A70056
:10327000D98FC207C1833E878327C4FED98F2326F7
:10328000F4FE8327C4FE1397070141838327C4FB01
:103290002396E7008327C4FB83D74701C207C18376
:1032A0002326F4FE0327C4FEC1679387F7CFF98F67
:1032B0002326F4FE832784FB83D7C7003E8783271A
:1032C000C4FED98F2326F4FE8327C4FE139707017B
:1032D00041838327C4FB239AE700930784FC3E8540
:1032E000EFE0DFF70327C4FDB7470140938707806E
:1032F0006317F700832744FD2324F4FE29A08327C6
:1033000004FD2324F4FE8327C4FB83D7C700C20730
:10331000C183C207C18763D20702032784FEBA872D
:103320008607BA978E073E97832784FB9C438607C0
:10333000B357F7022322F4FE05A0032784FEBA87C1
:103340008607BA978E073E97832784FB9C438A079C
:10335000B357F7022322F4FE032744FE93074006E7
:10336000B357F70292072326F4FE8327C4FE13D730
:10337000470093074006B307F702032744FEB3074D
:10338000F7402320F4FE8327C4FB83D7C700C2077E
:10339000C183C207C18763D20702832704FE8E0759
:1033A0001387270393074006B357F7029D8B032724
:1033B000C4FED98F2326F4FE05A0832704FE9207BE
:1033C0001387270393074006B357F702BD8B0327E4
:1033D000C4FED98F2326F4FE8327C4FE139707016A
:1033E00041838327C4FB2394E7000100B6402644B1
:1033F00061618280011122CE00102326A4FE2324C5
:10340000B4FE832784FE95C38327C4FE83D7C700F9
:103410001397070141838967D98F13970701418368
:103420008327C4FE2396E70015A08327C4FE83D715
:10343000C700139707014183F977FD17F98F139799
:10344000070141838327C4FE2396E70001007244ED
:1034500005618280797122D60018232EA4FCAE87E4
:10346000232AC4FC231DF4FC232404FE232204FE8F
:10347000232004FE232604FE8327C4FD2326F4FE16
:103480008357A4FD93F7F70F958393F7F70F232442
:10349000F4FE8357A4FDFD8B2322F4FE832744FE14
:1034A0000547B317F7002320F4FE032784FE854762
:1034B0006318F7008327C4FEB1072326F4FE0DA08E
:1034C000032784FE89476318F7008327C4FEC107DA
:1034D0002326F4FE31A08327C4FED1072326F4FE61
:1034E000832744FD99CB8327C4FE94438327C4FEDE
:1034F000032704FE558F98C321A88327C4FE944355
:10350000832704FE13C7F7FF8327C4FE758F98C374
:103510000100325445618280011122CE0010232621
:10352000A4FEAE872315F4FE8357A4FE93F7F71F7E
:103530001397070141838327C4FE2392E70001000C
:10354000724405618280011122CE00102326A4FE60
:103550008327C4FE83D74700C207C18393F7F71FB1
:10356000C207C1833E85724405618280797122D68B
:103570000018232EA4FCAE87231DF4FC232604FE92
:103580008327C4FD83D7070013970701418383571F
:10359000A4FDF98FC207C18389C785472326F4FE9E
:1035A00019A0232604FE8327C4FE3E8532544561BC
:1035B0008280797122D60018232EA4FCAE87231DA9
:1035C000F4FC232204FE232604FE232004FE2324ED
:1035D00004FE8357A4FD93F7F70F958393F7F70F36
:1035E0002320F4FE8357A4FDFD8B2326F4FE8327BE
:1035F000C4FE0547B317F7002326F4FE032704FE95
:103600008547631FF7008327C4FD83D7C700C20720
:10361000C1833E878327C4FEF98F2326F4FE3DA88D
:10362000032704FE8947631FF7008327C4FD83D760
:103630000701C207C1833E878327C4FEF98F232673
:10364000F4FE29A88327C4FD83D74701C207C1839D
:103650003E878327C4FEF98F2326F4FE8357A4FDFB
:10366000A183C207C1832322F4FE832744FE0547BA
:10367000B317F7002322F4FE8327C4FD83D7070086
:10368000C207C1833E87832744FEF98F2322F4FEBD
:103690008327C4FE81CB832744FE89C78547232423
:1036A000F4FE19A0232404FE832784FE3E853254B1
:1036B00045618280797122D60018232EA4FCAE8742
:1036C000231DF4FC231704FE231604FE8357A4FDD8
:1036D000A1832317F4FE8357E4FE0547B317F700D1
:1036E0002316F4FE8357C4FE93C7F7FF1397070111
:1036F00041838327C4FD2390E700010032544561D4
:103700008280011106CE22CC0010AA87A307F4FE06
:103710001307F4FE9307F4FE85463A86BE850545F9
:10372000EF20D04B8347F4FE3E85F24062440561B2
:103730008280797106D622D44AD24ED00018AA8748
:103740002E87232CC4FCA30FF4FCBA87230FF4FCB0
:10375000832784FDFD8B0547B317F7009396070178
:10376000C182832784FD958393F7F70F13F77700C2
:10377000B5670A079387879ABA979C433687D8CB51
:103780008347F4FD93E707F8A30FF4FC8347F4FDA8
:103790003E85EFF01FF78347E4FD3E85EFF07FF6AF
:1037A000832784FDFD8B0547B317F7009396070128
:1037B000C182832784FD958393F7F70F13F7770072
:1037C000B5670A079387879ABA979C43368798CB41
:1037D00003A70187B7177A0093870720B357F7022B
:1037E0003E8981494A85CE85EF20704B832784FD31
:1037F000FD8B0547B317F70093960701C182832716
:1038000084FD958393F7F70F13F77700B5670A07E1
:103810009387879ABA979C433687D8CB0145EFF0B8
:103820005FEEAA87A307F4FE0145EFF09FED832723
:1038300084FDFD8B0547B317F70093960701C182FE
:10384000832784FD958393F7F70F13F77700B56708
:103850000A079387879ABA979C43368798CB034782
:10386000E4FD8347F4FE6304F700854711A0814718
:103870003E85B2502254125982594561828001110D
:1038800006CE22CC4ACA4EC80010AA872324B4FE12
:103890002322C4FEA307F4FE832744FEFD8B0547C5
:1038A000B317F70093960701C182832744FE9583DF
:1038B00093F7F70F13F77700B5670A079387879A8F
:1038C000BA979C433687D8CB8347F4FE93E7070427
:1038D000A307F4FE8347F4FE3E85EFF09FE2014527
:1038E000EFF03FE2832744FEFD8B0547B317F70057
:1038F00093960701C182832744FE958393F7F70FC0
:1039000013F77700B5670A079387879ABA979C439E
:10391000368798CB03A70187B7177A0093870720CC
:10392000B357F7023E8981494A85CE85EF2030376B
:10393000832744FEFD8B0547B317F70093960701D5
:10394000C182832744FE958393F7F70F13F777001F
:10395000B5670A079387879ABA979C433687D8CB6F
:103960000145EFF01FDAAA873E87832784FE238074
:10397000E7000145EFF0FFD8832744FEFD8B0547A4
:10398000B317F70093960701C182832744FE9583FE
:1039900093F7F70F13F77700B5670A079387879AAE
:1039A000BA979C43368798CB0100F2406244524953
:1039B000C24905618280011106CE22CC0010AA877F
:1039C0002324B4FE2317F4FE8357E4FE0567B307F0
:1039D000F7402317F4FE8357E4FE92072317F4FE03
:1039E0008357E4FE93F7F70F032684FEBE85014557
:1039F000EFF03FD48357E4FEA183C207C18393F75E
:103A0000F70F032684FEBE850545EFF09FD2010027
:103A1000F240624405618280797106D622D4001892
:103A2000232EA4FC231604FE8327C4FDFD8B05472B
:103A3000B317F70093960701C1828327C4FD9583CE
:103A400093F7F70F13F77700B5670A079387879AFD
:103A5000BA979C433687D8CB0145EFF09FCAAA8717
:103A60002316F4FE8357C4FEA2072316F4FE014575
:103A7000EFF03FC9AA871397070141838357C4FE1C
:103A8000D98F2316F4FE8327C4FDFD8B0547B3179A
:103A9000F70093960701C1828327C4FD958393F7AE
:103AA000F70F13F77700B5670A079387879ABA97D6
:103AB0009C43368798CB8357C4FE91832316F4FE2C
:103AC0000357C4FE239CE18403D7A18583D7818556
:103AD000B307F740C207C1832317F4FE0317E4FEC0
:103AE00085679387078063D2E70203D7A18583D7D1
:103AF0008185B307F740139707014183FD77850759
:103B0000BA97C207C1832317F4FE0317E4FE930795
:103B100000806352F70203D7A18583D78185B3075D
:103B2000F7401397070141838567FD17BA97C207CE
:103B3000C1832317F4FE03D78185239DE184835736
:103B4000E4FE3E85B250225445618280797106D6EA
:103B500022D40018232EA4FC231604FE8327C4FDC0
:103B6000FD8B0547B317F70093960701C1828327A2
:103B7000C4FD958393F7F70F13F77700B5670A072E
:103B80009387879ABA979C433687D8CB0145EFF045
:103B90005FB7AA872316F4FE8357C4FEA207231635
:103BA000F4FE0145EFF0FFB5AA87139707014183A3
:103BB0008357C4FED98F2316F4FE8327C4FDFD8BE3
:103BC0000547B317F70093960701C1828327C4FD09
:103BD000958393F7F70F13F77700B5670A07938775
:103BE000879ABA979C43368798CB8357C4FE9183B4
:103BF0002316F4FE0357C4FE239EE18403D7E18518
:103C000083D7C185B307F740C207C1832317F4FEEA
:103C10000317E4FE85679387078063D2E70203D723
:103C2000E18583D7C185B307F74013970701418327
:103C3000FD778507BA97C207C1832317F4FE0317E0
:103C4000E4FE930700806352F70203D7E18583D730
:103C5000C185B307F7401397070141838567FD17B7
:103C6000BA97C207C1832317F4FE03D7C185239FE8
:103C7000E1848357E4FE3E85B25022544561828040
:103C8000797106D622D40018232EA4FC231604FE34
:103C90008327C4FDFD8B0547B317F70093960701F3
:103CA000C1828327C4FD958393F7F70F13F777003D
:103CB000B5670A079387879ABA979C433687D8CB0C
:103CC0000145EFF01FA4AA872316F4FE8357C4FE14
:103CD000A2072316F4FE0145EFF0BFA2AA871397AF
:103CE000070141838357C4FED98F2316F4FE83272F
:103CF000C4FDFD8B0547B317F70093960701C182FA
:103D00008327C4FD958393F7F70F13F77700B56703
:103D10000A079387879ABA979C43368798CB83572D
:103D2000C4FE91832316F4FE0357C4FE2390E1865C
:103D300003D7218683D70186B307F740C207C18323
:103D40002317F4FE0317E4FE85679387078063D289
:103D5000E70203D7218683D70186B307F74013977D
:103D600007014183FD778507BA97C207C1832317EF
:103D7000F4FE0317E4FE930700806352F70203D7B3
:103D8000218683D70186B307F74013970701418344
:103D900085678507BA97C207C1832317F4FE03D747
:103DA00001862391E1868357E4FE3E85B25022547A
:103DB00045618280797106D622D40018232EA4FC96
:103DC000231604FE8327C4FDFD8B0547B317F700B8
:103DD00093960701C1828327C4FD958393F7F70F5C
:103DE00013F77700B5670A079387879ABA979C43BA
:103DF0003687D8CB0145EFF0DF90AA872316F4FE73
:103E00008357C4FEA2072316F4FE0145EFF07F8F0F
:103E1000AA871397070141838357C4FED98F2316BE
:103E2000F4FE8327C4FDFD8B0547B317F700939677
:103E30000701C1828327C4FD958393F7F70F13F71A
:103E40007700B5670A079387879ABA979C433687A6
:103E500098CB8357C4FE91832316F4FE0357C4FE08
:103E60002392E18603D7618683D74186B307F74063
:103E7000C207C1832317F4FE0317E4FE8567938707
:103E8000078063D2E70203D7618683D74186B307F1
:103E9000F740139707014183FD778507BA97C2075B
:103EA000C1832317F4FE0317E4FE930700806352D7
:103EB000F70203D7618683D74186B307F74013978C
:103EC0000701418385678507BA97C207C183231716
:103ED000F4FE03D741862393E1868357E4FE3E85B3
:103EE000B250225445618280797106D622D40018DE
:103EF000232EA4FC9307F4FE0326C4FDBE851945BA
:103F0000EFF0FF970347F4FEF147E315F7FE0100DA
:103F1000B250225445618280011106CE22CC00109D
:103F20002326A4FE094881470327C4FE93062002E6
:103F300013061002930500020545EF20C036032545
:103F4000C4FEEFF07FFA0326C4FE81452545EFF05D
:103F50004FFE8325C4FE0145EFF0FFA50100F240AE
:103F6000624405618280011106CE22CC0010AA872E
:103F7000A307F4FEB5679387879A9C473E87A1679E
:103F80005CCBB5679387879A9C473E8791675CCBEC
:103F90009307F4FE85460146BE850145EF200044A7
:103FA000B5679387879A9C473E87A1671CCB010022
:103FB000F240624405618280011106CE22CC0010DD
:103FC000AA87A307F4FEB5679387879A9C473E8725
:103FD000A1675CCBB5679387879A9C473E879167BB
:103FE0001CCB9307F4FE85460146BE850145EF20B4
:103FF000E03EB5679387879A9C473E87A1671CCBB5
:104000000100F240624405618280797106D622D4B3
:104010000018AA87231FF4FCB5679387879A9C47EB
:104020003E87A1675CCB8357E4FDA183C207C183B0
:1040300093F7F70F2306F4FE8357E4FD93F7F70F8A
:10404000A306F4FEB5679387879A9C473E879167DE
:104050001CCB9307C4FE89460146BE850145EF206F
:10406000E037B5679387879A9C473E87A1671CCB4B
:104070000100B250225445618280797106D622D463
:104080004AD24ED052CE56CC5ACA5EC862C666C418
:104090000018014881471307F004930630020546D3
:1040A00081450145EF2020209306003105468545D6
:1040B00013050008EF10802793060031014685455F
:1040C0001305E004EF108026930600310146854574
:1040D0001305D004EF108025B5679387879A9C4716
:1040E0003E8789675CCB03A701878967938707F4BD
:1040F0003357F7029307800CB307F7023E8C814CCD
:104100006285E685EF20A039B5679387879A9C473B
:104110003E8789671CCB03A701878967938707F4CC
:104120003357F70293074006B307F7023E8B814BE4
:104130005A85DE85EF20A03613056003EFF0BFE25D
:1041400003A701878967938707F43357F70293071B
:104150004006B307F7023E8A814A5285D685EF2092
:1041600000341305000AEFF03FE51305A003EFF05C
:104170009FDF1545EFF05FE41305200BEFF0BFDE86
:104180003145EFF07FE33145EFF01FE30145EFF0FC
:10419000BFE213053003EFF03FE213053003EFF009
:1041A000BFE11305700BEFF01FDC13055003EFF0B8
:1041B000BFE01305B00BEFF01FDB13057003EFF04A
:1041C000BFDF1305000CEFF01FDA1305C002EFF09C
:1041D000BFDE1305200CEFF01FD90545EFF0DFDD42
:1041E0001305300CEFF03FD84945EFF0FFDC130525
:1041F000400CEFF05FD713050002EFF0FFDB130573
:10420000600CEFF05FD63D45EFF01FDB1305000DAE
:10421000EFF07FD51305400AEFF01FDA1305100AFF
:10422000EFF09FD91305000EEFF0FFD31305000D3B
:10423000EFF09FD81145EFF03FD83545EFF0DFD7CD
:104240004545EFF07FD74D45EFF01FD71305B0027E
:10425000EFF09FD61305F003EFF01FD613054005CE
:10426000EFF09FD51305C004EFF01FD56145EFF0C7
:10427000BFD43545EFF05FD42D45EFF0FFD37D453A
:10428000EFF09FD313053002EFF01FD31305100E8C
:10429000EFF07FCD1305000DEFF01FD21145EFF0C9
:1042A000BFD13145EFF05FD14545EFF0FFD04D452F
:1042B000EFF09FD01305C002EFF01FD01305F003FD
:1042C000EFF09FCF13054004EFF01FCF130510054B
:1042D000EFF09FCE1305F002EFF01FCE7D45EFF01B
:1042E000BFCD7D45EFF05FCD13050002EFF0DFCCD1
:1042F00013053002EFF05FCC13051002EFF0BFC6DC
:104300004545EFF05FC603A701878967938707F4E8
:104310003357F702BA879207998F8E073E898149F2
:104320004A85CE85EF20A01713059002EFF0BFC39A
:10433000014565200100B250225412598259724A37
:10434000E24A524BC24B324CA24C45618280011171
:1043500006CE22CC0010AA8736872317F4FEAE873C
:104360002316F4FEB2872315F4FEBA872314F4FE55
:104370001305A002EFF03FBF8357E4FE9387870247
:10438000C207C1833E85EFF05FC88357A4FE9387C1
:104390008702C207C1833E85EFF03FC71305B00215
:1043A000EFF07FBC8357C4FE93874703C207C183E6
:1043B0003E85EFF09FC5835784FE93874703C2076E
:1043C000C1833E85EFF07FC41305C002EFF0BFB993
:1043D0000100F240624405618280797106D622D4E0
:1043E0000018AA87231FF4FC930660081306F00E3A
:1043F00081450145EFF0BFF5231704FE0DA82316F4
:1044000004FE19A88357E4FD3E85EFF01FC08357D3
:10441000C4FE85072316F4FE0357C4FE9307600805
:10442000E3F2E7FE8357E4FE85072317F4FE035704
:10443000E4FE9307F00EE3F4E7FC0100B2502254CF
:1044400045618280011106CE22CC0010AA87AE867B
:1044500032872317F4FEB6872316F4FEBA87231596
:10446000F4FE8356C4FE0356E4FE0357C4FE83578E
:10447000E4FEBA853E85EFF09FED8357A4FE3E85AE
:10448000EFF0BFB80100F2406244056182807971AB
:1044900006D622D40018AA87AE863287231FF4FCE2
:1044A000B687231EF4FCBA87A30DF4FCA30704FE11
:1044B0007DA08347F4FE1397070141838357C4FD12
:1044C000BA9793950701C1818357E4FD9D07139621
:1044D000070141828347F4FE139707014183835705
:1044E000C4FDBA971397070141838357E4FDBA8649
:1044F0003E85EFF0DFE58307B4FD938607FE834733
:10450000F4FE31679206130787263697BA9783C75A
:104510000700A306F4FE230704FE05A88347D4FE84
:10452000858B99C7C1671385F7FFEFF01FAE21A0F8
:104530000145EFF09FAD8347D4FE8583A306F4FECB
:104540008347E4FE85072307F4FE0347E4FE9D4707
:10455000E3F6E7FC8347F4FE8507A307F4FE034771
:10456000F4FEBD47E3F7E7F40100B2502254456181
:104570008280797106D622D40018AA872E87232C30
:10458000C4FC231FF4FCBA87231EF4FC231704FE8B
:1045900099A08357E4FE8E07139707014183835741
:1045A000E4FDBA9793960701C1828357C4FD920731
:1045B00093950701C1818357E4FE032784FDBA97D1
:1045C000838707003E863685EFF07FEC8357E4FE55
:1045D00085072317F4FE8357E4FE032784FDBA976B
:1045E00083870700DDF70100B250225445618280C5
:1045F000797106D622D40018AA87AE863287231F87
:10460000F4FCB687231EF4FCBA87A30DF4FC8307E1
:10461000B4FD63D907028357C4FD920713970701BE
:1046200041838357E4FD1306D002BA853E85EFF03F
:104630001FE68347B4FDB307F04093F7F70FA30DD0
:10464000F4FC39A88357C4FD9207139707014183EF
:104650008357E4FD13060002BA853E85EFF03FE381
:104660000307B4FD93074006B347F702E207E1876B
:1046700093F7F70F2306F4FE0307B4FDA947B347EA
:10468000F702139787016187A947B367F702E2072B
:10469000E18793F7F70FA306F4FE0307B4FDA947DC
:1046A000B367F702E207E18793F7F70F2307F4FEFA
:1046B000A30704FEA9A88347F4FE8507C207C183A8
:1046C0008E071397070141838357E4FDBA97139729
:1046D000070141838357C4FD920793960701C18266
:1046E0008347F4FE130604FFB29783C7C7FF93877F
:1046F000070393F7F70FE207E1873E86B6853A8511
:10470000EFF0FFD88347F4FE8507A307F4FE0347C5
:10471000F4FE8947E3F1E7FA0100B2502254456103
:104720008280797106D622D40018AA87AE86328795
:10473000231FF4FCB687231EF4FCBA87231DF4FC68
:104740008317A4FD63D907028357C4FD920713970B
:10475000070141838357E4FD1306D002BA853E85E5
:10476000EFF0FFD28357A4FDB307F040C207C18327
:10477000231DF4FC39A88357C4FD92071397070142
:1047800041838357E4FD13060002BA853E85EFF0AE
:104790001FD00317A4FD896793870771B347F702FA
:1047A000C207C18793F7F70F2304F4FE0317A4FD94
:1047B0009307803EB347F702139707014187A94744
:1047C000B367F702C207C18793F7F70FA304F4FE9C
:1047D0000317A4FD93074006B347F7021397070199
:1047E0004187A947B367F702C207C18793F7F70F5D
:1047F0002305F4FE0317A4FDA947B347F702139757
:1048000007014187A947B367F702C207C18793F73A
:10481000F70FA305F4FE0317A4FDA947B367F7023A
:10482000C207C18793F7F70F2306F4FEA30704FE20
:10483000A9A88347F4FE8507C207C1838E07139793
:10484000070141838357E4FDBA971397070141831A
:104850008357C4FD920793960701C1828347F4FEF4
:10486000130604FFB29783C787FF9387070393F765
:10487000F70FE207E1873E86B6853A85EFF03FC144
:104880008347F4FE8507A307F4FE0347F4FE914730
:10489000E3F1E7FA0100B2502254456182805D7174
:1048A00086C6A2C480082328C4FA232AD4FABA866A
:1048B0003E87AA87231FF4FAAE87231EF4FAB68731
:1048C000A30DF4FABA87230DF4FA0347A4FB994722
:1048D00063F5E7009947230DF4FA0347B4FBA947B2
:1048E00063F5E700A947A30DF4FA014681460325C5
:1048F00004FB832544FBEF40A053AA8763D1070242
:10490000130784FC032604FB832644FBB1679385CD
:1049100087103A85D124AA87A307F4FE35A0930710
:1049200084FC13871700032604FB832644FBB1672E
:10493000938587103A854D24AA87A307F4FE834701
:10494000F4FE8507A307F4FE8347F4FEE51793F70B
:10495000F70F2306F4FE0347C4FE8347B4FBB307F7
:10496000F74093F7F70FFD1793F7F70F2307F4FEC0
:104970000347C4FE8347A4FBBA9793F7F70F850755
:1049800093F7F70FA306F4FE25A88307D4FE1307B9
:1049900004FFBA9713070002238CE7FC8307D4FEB9
:1049A00093F7F70F850793F7F70FA306F4FE830736
:1049B000E4FE93F7F70F850793F7F70F2307F4FE4D
:1049C0008307E4FEE3C307FC01468146032504FB9D
:1049D000832544FBEF40C045AA8763DC07008307BB
:1049E000E4FE130704FFBA971307D002238CE7FCF9
:1049F00011A88307E4FE130704FFBA971307000208
:104A0000238CE7FC8307D4FE130704FFBA97238C9B
:104A100007FC930684FC0357C4FB8357E4FB3686EC
:104A2000BA853E85EFF0FFB40100B64026446161CF
:104A30008280797122D60018232EA4FC232CB4FC8A
:104A4000B2873687A30BF4FCBA87230BF4FCA303CD
:104A500004FE230304FE834774FDA5CB8327C4FD16
:104A60002326F4FE8327C4FE63D807008327C4FEF1
:104A7000B307F0402326F4FE834764FD0327C4FEFA
:104A8000B367F70293F7F70F9387070393F7F70FCF
:104A9000139787016187832784FD2380E70083477D
:104AA00064FD0327C4FEB347F7022326F4FE8347C1
:104AB00064FE85072303F4FE8327C4FEC9C383274E
:104AC00084FD8507232CF4FC45BF8327C4FD2324E4
:104AD000F4FE834764FD032784FEB377F702A30344
:104AE000F4FE034774FEA54763F9E700834774FEAD
:104AF00093877703A303F4FE39A0834774FE93875B
:104B00000703A303F4FE030774FE832784FD2380B9
:104B1000E700834764FD032784FEB357F70223248D
:104B2000F4FE834764FE85072303F4FE832784FE97
:104B300089CB832784FD8507232CF4FC59BF010012
:104B400011A00100834764FE3E8532544561828096
:104B5000797122D60018232EA4FC232CB4FC232622
:104B600004FE85A0032784FD8327C4FEB307F74016
:104B7000FD170327C4FDBA9783C70700A305F4FEFA
:104B80000327C4FD8327C4FE3E97832684FD832725
:104B9000C4FEB387F640FD178326C4FDB69703070E
:104BA00007002380E7000327C4FD8327C4FEBA97CC
:104BB0000347B4FE2380E7008327C4FE850723262E
:104BC000F4FE832784FD85830327C4FEE36CF7F896
:104BD0000100325445618280357186DEA2DC00011D
:104BE0002326A4F82324B4F810C454C418C85CC8FD
:104BF000232C0401232E1401232604FE9307040210
:104C0000A117232AF4FA09AB832784F883C7070086
:104C1000A301F4FE030734FE930750026315F74C1B
:104C2000832784F885072324F4F8832784F883876F
:104C300007009387B7FD130730056369F74C139797
:104C40002700B56793878785BA979C438287832718
:104C500044FB13874700232AE4FA9C432301F4FE14
:104C60008327C4F8034724FE2380E7008327C4F882
:104C700085072326F4F88327C4FE85072326F4FE40
:104C800079A1832744FB13874700232AE4FA9C4336
:104C9000232EF4FC8327C4FD130704F9A946054617
:104CA000BA853E85EFF0FFD8AA87A305F4FE8327D7
:104CB000C4FD63D007028347B4FE130704FFBA970D
:104CC0001307D0022380E7FA8347B4FE8507A305C4
:104CD000F4FE0347B4FE930704F9BA853E85EFF06E
:104CE0003FE70347B4FE930704F93A86BE850325E0
:104CF000C4F8EF6060148347B4FE0327C4F8BA9782
:104D00002326F4F88347B4FE0327C4FEBA9723266C
:104D1000F4FEF5AE832744FB9D07E19B13878700D4
:104D2000232AE4FA03A847009C432328F4FC232AFF
:104D300004FD032504FD832544FDEF40305AAA8776
:104D40003E87930704F9A9460546BE853A85EFF0EC
:104D50005FCEAA872305F4FE01468146032504FDA4
:104D6000832544FDEF40C00CAA8763D00702834728
:104D7000A4FE130704FFBA971307D0022380E7FAB3
:104D80008347A4FE85072305F4FE0347A4FE93078B
:104D900004F9BA853E85EFF0BFDB0347A4FE930715
:104DA00004F93A86BE850325C4F8EF60E00883471E
:104DB000A4FE0327C4F8BA972326F4F88347A4FE79
:104DC0000327C4FEBA972326F4FE032504FD83259A
:104DD00044FDEF40B050AA873E85EF40B056AA8709
:104DE0002E883E86C286032504FD832544FDEF40C0
:104DF000005BAA872E883E85C285B16703A687140B
:104E000083A6C714EF40200EAA872E882328F4FC1F
:104E1000232A04FD01468146032504FD832544FD24
:104E2000EF30707AAA878DC7032504FD832544FDE2
:104E3000EF40D04AAA873E87930704F9A946054662
:104E4000BE853A85EFF0FFBEAA872305F4FE99A838
:104E500093070003A30AF4F8830754F9230AF4F82C
:104E6000830744F9A309F4F8830734F92309F4F814
:104E7000830724F9A308F4F8830714F92308F4F846
:104E800099472305F4FE39A88347A4FE130704FFBE
:104E9000BA97130700032380E7FA8347A4FE850728
:104EA0002305F4FE0347A4FE9547E3FFE7FC834791
:104EB000A4FE130704FFBA971307E0022380E7FA62
:104EC0008347A4FE85072305F4FE0347A4FE93074A
:104ED00004F9BA853E85EFF0BFC70347A4FE9307E8
:104EE00004F93A86BE850325C4F8EF50F074834771
:104EF000A4FE0327C4FEBA972326F4FE010001ACEA
:104F0000832744FB13874700232AE4FA9C43232684
:104F1000F4FC930704F9A9460146BE850325C4FCA9
:104F2000EFF03FB1AA87A305F4FC0347B4FC930755
:104F300004F9BA853E85EFF0BFC10347B4FC93077F
:104F400004F93A86BE850325C4F8EF50F06E834716
:104F5000B4FC0327C4F8BA972326F4F88347B4FCBB
:104F60000327C4FEBA972326F4FE55A2832744FBE9
:104F700013874700232AE4FA9C432322F4FC930777
:104F800004F9A1460146BE85032544FCEFF07FAA43
:104F9000AA87A301F4FC034734FC930704F9BA85FC
:104FA0003E85EFF0FFBA034734FC930704F93A86D5
:104FB000BE850325C4F8EF503068834734FC0327CF
:104FC000C4F8BA972326F4F8834734FC0327C4FEB9
:104FD000BA972326F4FE25AA832744FB13874700AC
:104FE000232AE4FA9C43232EF4FA930704F9C146DA
:104FF0000146BE850325C4FBEFF0BFA3AA87A30D1E
:10500000F4FA0347B4FB930704F9BA853E85EFF041
:105010003FB40347B4FB930704F93A86BE850325E2
:10502000C4F8EF5070618347B4FB0327C4F8BA9704
:105030002326F4F88347B4FB0327C4FEBA9723263C
:10504000F4FEF1A0832744FB13874700232AE4FAE8
:105050009C432322F4FE05A8832744FE0387070010
:105060008327C4F82380E7008327C4F88507232615
:10507000F4F88327C4FE85072326F4FE832744FE25
:1050800085072322F4FE832744FE83870700E9F780
:10509000BDA8930704F9A1453E85EFF07FAB9307C8
:1050A00004F92146BE850325C4F8EF50F058832744
:1050B000C4F8A1072326F4F88327C4FEA1072326FA
:1050C000F4FEB1A08327C4F8130750022380E70041
:1050D0008327C4F885072326F4F88327C4FE8507B1
:1050E0002326F4FE2DA0832784F803870700832757
:1050F000C4F82380E7008327C4F885072326F4F843
:105100008327C4FE85072326F4FE11A00100832710
:1051100084F885072324F4F8832784F8838707001D
:10512000E39407AE8327C4FE3E85F65066540D61B6
:105130008280797122D60018232EA4FC232CB4FC83
:105140000327C4FDA167BA9713972700832784FD1F
:10515000BA97AA072324F4FE231704FE0DA00357D1
:10516000E4FE832784FEBA979843FD576304F70053
:10517000854729A88357E4FE91072317F4FE0357B8
:10518000E4FE9307F03FE3FCE7FC81473E853254A1
:1051900045618280797106D622D40018232EA4FCA2
:1051A000232CB4FC0327C4FDA167BA9713972700EB
:1051B000832784FDBA97AA072326F4FEEFC0BF8891
:1051C00013054003EFC0FFA20325C4FEEFC03F8CD0
:1051D0002A8723A6E18013050002EFC09FA1EFC03C
:1051E0003F8903A7C18091476304F700854711A059
:1051F00081473E85B250225445618280797122D622
:105200000018232EA4FC232CB4FC232AC4FCB6874C
:105210002319F4FC231704FE232404FE0327C4FDF2
:10522000A167BA9713972700832784FDBA97AA0727
:105230002324F4FEB7F700082324F4FE231704FE0A
:1052400035A08357E4FE8A073E87832784FEBA97FA
:10525000BE86832744FD13874700232AE4FC984237
:1052600098C38357E4FE85072317F4FE0357E4FE33
:10527000835724FDE367F7FC0100325445618280C7
:10528000797106D622D40018232EA4FC232CB4FC5A
:10529000232AC4FCB6872319F4FC232604FE032723
:1052A000C4FDA167BA9713972700832784FDBA9797
:1052B000AA072326F4FE832584FD0325C4FDEFF011
:1052C0005FE7AA8799C7832584FD0325C4FDEFF016
:1052D0007FECEFC04FF725A8832744FD13874700D5
:1052E000232AE4FC9C43BE850325C4FEEFC07F83D4
:1052F0002A8723A8E18003A7018191476304F7006F
:10530000854705A08327C4FE91072326F4FE835713
:1053100024FD1387F7FF2319E4FCDDFFEFC04FF5F1
:1053200081473E85B250225445618280797106D60C
:1053300022D40018232EA4FC232CB4FCB2872328EB
:10534000D4FCA30BF4FC8327C4FD958393F7F70FDC
:105350009D8BA307F4FE8327C4FD93F7F70FFD8B06
:105360002307F4FE0327C4FD93070008630DF71419
:105370008327C4FD958391E785451145EFD06F8F55
:1053800061A88327C4FD13D7570085476317F7002B
:1053900085452145EFD0EF8D41A08327C4FD13D76C
:1053A000570089476317F70085454145EFD06F8C5B
:1053B000A5A08327C4FD13D757008D476318F700B6
:1053C000854513050002EFD0CF8AB9A08327C4FD1D
:1053D00013D7570091476318F7008545130500045C
:1053E000EFD02F8915A88327C4FD13D75700954701
:1053F0006318F700854513050008EFD08F8729A8AB
:105400008327C4FD13D7570099476317F7008545D5
:1054100013050010EFD0EF858347E4FE0547B3176F
:10542000F700C207C1832310F4FE032784FD8547DC
:105430006317F702832704FDC207C183A183C20754
:10544000C18389E78D472322F4FE11A8832704FD39
:10545000C207C183A183C207C1832322F4FE83272D
:1054600004FDC207C18393F7F70F2324F4FE03471B
:10547000F4FEB5670A079387879ABA979C433E87DD
:10548000930704FEBE853A85EFC09F83032784FD02
:105490008547631BF7020347F4FEB5670A07938746
:1054A000879ABA979C43BE868347E4FE0547B317A5
:1054B000F700C207C183034774FD3A86BE8536856F
:1054C000EFC0BFA211A00100B250225445618280FA
:1054D000797122D60018232EA4FCAE87A30DF4FC0C
:1054E0008327C4FD958393F7F70F9D8BA307F4FEE5
:1054F0008327C4FD93F7F70FFD8B2307F4FE0347C3
:10550000B4FD85476312F7028347E4FE0547B316EF
:10551000F7000347F4FEB5670A079387879ABA979F
:105520009C43368798CB05A08347E4FE0547B31616
:10553000F7000347F4FEB5670A079387879ABA977F
:105540009C433687D8CB0100325445618280797103
:1055500022D60018232EA4FC8327C4FD958393F73D
:10556000F70F9D8BA307F4FE8327C4FD93F7F70F76
:10557000FD8B2307F4FE0347F4FEB5670A07938704
:10558000879ABA979C439C470347E4FE8546339726
:10559000E600F98F99C3854711A081473E853254B3
:1055A00045618280797106D622D40018232EA4FC8E
:1055B000232CB4FC232AC4FC85450545EFC07FEBB2
:1055C000832644FD014681450325C4FDEFF01FD627
:1055D0008327C4FD958313F7F70F8327C4FD93F743
:1055E000F70FFD8B93F7F70FBE853A85EFC03FA706
:1055F0008327C4FDFD8B0547B317F7002320F4FE76
:10560000232204FE832784FD2324F4FE85472326DA
:10561000F4FE930704FE3E85EFC08FA40100B25054
:10562000225445618280797106D622D40018232E37
:10563000A4FCAE873687A30DF4FCB287230DF4FCDF
:10564000BA87A30CF4FC8327C4FD93F7F70F230458
:10565000F4FE8347B4FDA304F4FE8347A4FD2305B1
:10566000F4FE834794FD2326F4FE930784FE3E85D3
:10567000EFC0FFB1B7E700E09843FD777D8F83A7C8
:1056800041955D8F23AAE194B7E700E0D843B707BF
:105690000010FD177D8F93874195DC435D8F9387C5
:1056A0004195D8C39387419503C787008547631306
:1056B000F70031200100B25022544561828041112F
:1056C00022C60008B7E700E07D5723A0E718B7E738
:1056D00000E07D5723A2E718010032444101828097
:1056E000411122C60008B7E700E003A7419523A0B7
:1056F000E710B7E700E013874195584323A2E7106E
:105700000100324441018280011106CE22CC0010FA
:105710009387419505472384E70083A7419581EB53
:1057200093874195DC4381E7A30704FE21A08547C9
:10573000A307F4FEEFF0BFF88347F4FE3E85F24086
:10574000624405618280011106CE22CC0010AA8736
:10575000A307F4FE8347F4FE99E7938741952384DA
:105760000700EFF0FFF70100F2406244056182801C
:10577000797106D622D40018232EA4FCAE87231DEF
:10578000F4FC8327C4FD81EB85458567138507807D
:10579000EFC03FCE35A80327C4FD85476317F70048
:1057A00085450545EFC05FD125A00327C4FD894786
:1057B0006317F70085450945EFC01FD011A80327DF
:1057C000C4FD8D476316F70085451145EFC0DFCE58
:1057D0008357A4FD91EFB16793860715B5671386CC
:1057E000879B93052003B16713854715EF50C05E73
:1057F00003A701879307007DB357F702C207C18350
:10580000FD17C207C1832314F4FE8357A4FD860746
:10581000C207C183FD17C207C1832312F4FE2315FB
:1058200004FE231304FE230604FEB5670327C4FD0C
:105830000A079387079DBA979C433E87930744FEC8
:10584000BE853A85EFC0DFE0B5670327C4FD0A07D0
:105850009387079DBA979C43054685453E85EFD0C3
:105860004FDCB5670327C4FD0A079387079DBA97E6
:105870009C4385453E85EFD0DF918327C4FD89EBAE
:1058800085460946854513059002EFF0DFD9B9A09A
:105890000327C4FD8547631AF700854609468545F9
:1058A0001305C002EFF03FD815A80327C4FD8947B0
:1058B000631AF7008546094685451305D002EFF0C7
:1058C0009FD629A80327C4FD8D476319F700854695
:1058D000094685451305E002EFF0FFD4B5670327BD
:1058E000C4FD0A079387079DBA979C4385453E856B
:1058F000EFD0AFC70100B250225445618280011140
:1059000006CE22CC00102326A4FE0327C4FE930754
:1059100000206307F7240327C4FE9307002063EAEF
:10592000E70A0327C4FE930710106300F71C032740
:10593000C4FE9307101063E2E7040327C4FE8947FF
:10594000630DF7160327C4FE894763ECE70083273E
:10595000C4FE638407140327C4FE85476307F71456
:10596000E5AC0327C4FE8D476301F7160327C4FE89
:10597000930700106303F716C5A40327C4FE93071B
:105980000011630CF7180327C4FE9307001163EF9F
:10599000E7000327C4FE930720106300F7160327D0
:1059A000C4FE930730106302F7167DA40327C4FEDC
:1059B000930720116304F7180327C4FE93072011EF
:1059C0006365F7160327C4FE930730116301F718C8
:1059D00061A40327C4FE930730216300F720032747
:1059E000C4FE9307302163EEE7040327C4FE930748
:1059F00030206300F71A0327C4FE9307302063EFBB
:105A0000E7000327C4FE930710206303F71603275C
:105A1000C4FE930720206305F7163DAC0327C4FEA0
:105A2000930710216309F7180327C4FE9307102179
:105A300063ECE7180327C4FE930700216304F716FD
:105A400021AC0327C4FE930700306303F71C032730
:105A5000C4FE9307003063EFE7000327C4FE9307FB
:105A600000226305F7180327C4FE9307102263087A
:105A7000F718DDA20327C4FE93072030630CF71A42
:105A80000327C4FE93072030636DF7180327C4FE75
:105A9000930730306309F71AC1A29306803101469B
:105AA00085452145EFF09F8845AA93068031014640
:105AB00085452545EFF09F8745A293068031014635
:105AC00085452945EFF09F8641AA9306803101461E
:105AD00085452D45EFF09F8541A293068031014613
