:100000006F003063130000001300000013000000B5
:100010001300000013000000130000001300000094
:100020001300000013000000130000001300000084
:08003000130000007300100032
:100038006FF09FFC000000006F0010576F00D05752
:1000480000000000000000000000000000000000A8
:100058000000000000000000000000000000000098
:100068006FF09FF9000000006FF01FF9000000001A
:100078006FF09FF86FF05FF86FF01FF86FF0DFF721
:100088006FF09FF76FF05FF76F0040256F00202833
:100098006F00002C6F00202D6F00E02D6FF0DFF552
:1000A8006FF09FF56FF05FF56F00304C6FF0DFF485
:1000B8006FF09FF46FF05FF46F00E02E0000000017
:1000C8000000000000000000000000006F00A02BEE
:1000D8006F00602E6F0060316F0020346F00603950
:1000E8006F0020426F00503E6FF01FF16FF0DFF09D
:1000F8006FF09FF06FF05FF06FF01FF06FF0DFEFC1
:100108006FF09FEF6F00503F6F0010406F00F0449A
:100118006F0060286FF05FEE6FF01FEE6FF0DFED9D
:1001280000000000000000000000000000000000C7
:080138000000000000000000BF
:100140003D432A876373C3029377F700BDEFADE5A4
:10015000937606FF3D8ABA960CC34CC30CC74CC7B6
:100160004107E36BD7FE11E28280B306C3408A06E3
:100170009702000096966780A6002307B700A306A3
:10018000B7002306B700A305B7002305B700A304F3
:10019000B7002304B700A303B7002303B700A302EB
:1001A000B7002302B700A301B7002301B700A300E3
:1001B000B7002300B700828093F5F50F9396850072
:1001C000D58D93960501D58D61B79396270097023B
:1001D000000096968682E78086FA9680C1171D8F6A
:1001E0003E96E374C3F8A5B7411106C622C40008C1
:1001F000EF30A01B0100B240224441018280411136
:1002000006C622C40008130780FD2380E18A938775
:10021000018A130700FBA380E70083978182A187EF
:10022000C207C18713F7F70F9387018A2381E7007D
:100230008397818213F7F70F9387018AA381E700E1
:100240009387018A130710FB2382E70083A70183AA
:100250003E85EFC02009AA87C207C187A187C207D0
:10026000C18713F7F70F9387018AA382E70083A75B
:1002700001833E85EFC00007AA87C207C18713F735
:10028000F70F9387018A2383E7009387018A130777
:1002900020FBA383E70083C7B188A18713F7F70F7B
:1002A0009387018A2384E70003C7B1889387018A73
:1002B000A384E7009387018A130730FB2385E700B7
:1002C0008387418713F7F70F9387018AA385E70098
:1002D0009387018A39572386E7000100B240224400
:1002E00041018280411122C600080545EF108010AF
:1002F0002A878547631CF70083C7118689C7EF40AB
:10030000107BA38001860545EF10201401003244C4
:10031000410173002030411122C600080945EF1049
:10032000600D2A8785476314F70203A781808947F8
:100330006315F700EF30405601A803A78180854779
:100340006314F700EF3000460945EF10001001007C
:100350003244410173002030411122C6000811458A
:10036000EF10A00E01003244410173002030411112
:1003700022C60008010032444101730020304111BF
:1003800022C60008010032444101730020304111AF
:1003900022C600080100324441017300203041119F
:1003A00022C600080100324441017300203041118F
:1003B00022C600080100324441017300203041117F
:1003C00022C6000893050008B7370140138507C00F
:1003D000EF20E07AAA8789CB93050008B737014060
:1003E000138507C0EF20B0000100324441017300C3
:1003F0002030411122C600088545B73701401385DA
:1004000007C0EF20C077AA8781CB8545B737014069
:10041000138507C0EF20A07D010032444101730025
:100420002030411122C6000893050004B73701406F
:10043000138507C0EF20A074AA8789CB9305000419
:10044000B7370140138507C0EF20607A930500029B
:10045000B7370140138507C0EF206072AA8789CBA8
:1004600093050002B7370140138507C0EF202078BD
:1004700001003244410173002030411122C60008BE
:100480008945B7370140138507C0EF20406FAA8721
:1004900081CB8945B7370140138507C0EF20207510
:1004A0009145B7370140138507C0EF20406DAA87FB
:1004B00081CB9145B7370140138507C0EF202073EA
:1004C000A145B7370140138507C0EF20406BAA87CD
:1004D00081CBA145B7370140138507C0EF202071BC
:1004E000C145B7370140138507C0EF204069AA878F
:1004F00081CBC145B7370140138507C0EF20206F7E
:1005000001003244410173002030011122CE4ACC57
:100510004ECA0010839781853E85EFB03068AA8768
:100520003E85EFC0E000B96703A607A683A647A6ED
:10053000EFA0303BAA872E883E85C285B96703A607
:1005400087A683A6C7A6EFA0805EAA872E883E85D1
:10055000C285EFC0A008AA872326F4FE83A7818363
:100560001387A70023ACE18203978182854763113B
:10057000F70883A701833E85EFB0907B2A89AE8977
:100580000325C4FEEFB0D07AB96703A607A783A6F8
:1005900047A7EFA01035AA872E883E86C2864A85D7
:1005A000CE85EF90D065AA872E883E85C285EFC0A4
:1005B000E0022A8723A8E18203A70183B96783A504
:1005C00087A73A85EFB0205FAA87634DF00003A7A5
:1005D0000183B96783A5C7A73A85EFB02066AA87CC
:1005E00063D80700054723AAE18209472394E182E3
:1005F00003C7C18885476317F70009472394E18241
:1006000023AE018203C7C18889476317F70C83A70C
:10061000018489E71307000023A8E182054723A08E
:10062000E184039781828D476315F70483A70183D3
:100630003E85EFB0F06F2A89AE890325C4FEEFB086
:10064000306FB96703A607A783A647A7EFA0702955
:10065000AA872E883E86C2864A85CE85EF90305A7C
:10066000AA872E883E85C285EFB050772A8723A8B7
:10067000E18203A7C1838D4763CCE7001D47239424
:10068000E18283A7C1831387170023AEE18221A0F3
:100690000D472394E18203A70183B96783A507A8C7
:1006A0003A85EFB04051AA87634DF00003A701835C
:1006B000B96783A547A83A85EFB04058AA8763DD9C
:1006C0000700239401820D472386E18823AE01822F
:1006D00023A001842387018003C7C1888D4763134A
:1006E000F70203A7C183854763CBE7002394018208
:1006F00083A7C1831387170023AEE18221A015478A
:100700002394E18203C7C18891476317F70023AEA2
:10071000018215472394E18203C7C1889547631A74
:10072000F70C83A7418489E71307000023A8E1821F
:10073000054723A2E1840397818291476315F7045B
:1007400083A701833E85EFB0B05E2A89AE89032579
:10075000C4FEEFB0F05DB96703A607A783A647A75D
:10076000EFA03018AA872E883E86C2864A85CE859D
:10077000EF90F048AA872E883E85C285EFB01066BC
:100780002A8723A8E18283A7C183634CF000154721
:100790002394E18283A7C1831387170023AEE182EC
:1007A00021A011472394E18203A70183B96783A5A0
:1007B00087A83A85EFB02040AA87634DF00003A7D1
:1007C0000183B96783A5C7A83A85EFB02047AA87F8
:1007D00063D107022394018219472386E18823AE5F
:1007E000018223A2018423870180130760F92388F3
:1007F000E18003C7C18899476319F70603C7E182FF
:1008000085476314F70683C7E188858B93F7F70F55
:10081000A9EF03C7D1888D476309F70403A7C183F4
:10082000854763CBE70083A7C1831387170023AEF7
:10083000E1822394018215A803A7C1839307600670
:1008400063D2E70203A7C1839307800663CCE70066
:1008500083A7C1831387170023AEE1823147239416
:10086000E18221A009472394E18203C7C1889D4703
:100870006317F70009472394E18223AE018203C77F
:10088000C188A1476317F70C83A7818489E7130701
:10089000000023A8E182054723A4E1840397818215
:1008A0008D476315F70483A701833E85EFB0504859
:1008B0002A89AE890325C4FEEFB09047B96703A625
:1008C00007A783A647A7EFA0D001AA872E883E8658
:1008D000C2864A85CE85EF909032AA872E883E85C3
:1008E000C285EFB0B04F2A8723A8E18203A7C18356
:1008F0008D4763CCE70083A7C1831387170023AE1E
:10090000E1821D472394E18221A00D472394E182D7
:1009100003A70183B96783A587A83A85EFB0A0290B
:10092000AA87634DF00003A70183B96783A5C7A811
:100930003A85EFB0A030AA8763DD070023940182D7
:1009400025472386E18823AE018223A401842387DF
:10095000018003C7C188A5476313F70203A7C183BA
:10096000854763CBE7002394018283A7C183138764
:10097000170023AEE18221A015472394E18203C72B
:10098000C188A9476317F70023AE01821547239456
:10099000E18203C7C188AD47631BF70C83A7C184FD
:1009A00089E71307000023A8E182054723A6E18415
:1009B0000397818291476315F70483A701833E85DE
:1009C000EFB010372A89AE890325C4FEEFB0503648
:1009D000B96703A607A783A647A7EFA08070AA87D9
:1009E0002E883E86C2864A85CE85EF905021AA8702
:1009F0002E883E85C285EFB0703E2A8723A8E1820B
:100A000083A7C183634BF00015472394E18283A73A
:100A1000C1831387170023AEE18211472394E1823B
:100A200003A70183B96783A507A93A85EFB0A0188A
:100A3000AA87634DF00003A70183B96783A547A97F
:100A40003A85EFB0A01FAA8763D3070223940182DF
:100A50002386018823AE018209472394E18223A6DD
:100A6000018423870180130760F92388E18083C70D
:100A7000C188C9EF03C7E18285476319F70883C7B7
:100A8000E188858B93F7F70FD1E303C7D1888D47B2
:100A9000630EF70603A7C183854763CBE70083A7EF
:100AA000C1831387170023AEE18223940182B9A882
:100AB00003A7C1839307300663D1E70203A7C1836D
:100AC0009307600663CBE70083A7C18313871700F2
:100AD00023AEE1822394018215A803A7C183930763
:100AE000600663D2E70203A7C1839307800663CC45
:100AF000E70083A7C1831387170023AEE182314744
:100B00002394E18221A009472394E18203C7D1887D
:100B10008D476317F70883A7018589E7130700004E
:100B200023A8E182054723A8E18483A701833E85AA
:100B3000EFB010202A89AE890325C4FEEFB0501F04
:100B4000B96703A607A783A647A7EFA08059AA877E
:100B50002E883E86C2864A85CE85EF90500AAA87A7
:100B60002E883E85C285EFB070272A8723A8E182B0
:100B700003A70183B96783A587A93A85EFB0A003CE
:100B8000AA87634DF00003A70183B96783A5C7A9AE
:100B90003A85EFB0A00AAA8763D4070023940182A4
:100BA000854537050040EF10907DAA87638B0710BD
:100BB000854537050040EF208003B967938707B16B
:100BC000DC473E8791471CCBEFF00FE2EFF02FE3BD
:100BD00035469385018A0945EF40003CB967938704
:100BE00007B1DC473E8791475CCBB707002003C7BE
:100BF000870B2385E18213058002EF30A014AA87BA
:100C00003E87B7070020238CE70AB707002083C779
:100C1000870B99C783C7A18281E705472386E182B5
:100C200083C7C18291C72386018205472394E1824D
:100C3000B707002003C7970BA385E1821305C00205
:100C4000EF304010AA873E87B7070020A38CE70A41
:100C5000B707002083C7970B99C783C7B18281E785
:100C60000547A386E18203C7D18285476310F70257
:100C7000A386018203C7C18085476316F700094731
:100C80002386E18021A005472386E18003978182A6
:100C900085476318F70203A7C183BD4763C9E7000F
:100CA00083A7C1831387170023AEE18219A8130716
:100CB000500623AEE18209472394E182054723874A
:100CC000E182010072446249D2490561730020301B
:100CD000411122C600088545B7070040138507402B
:100CE000EF10F069AA8781CB8545B70700401385CF
:100CF0000740EF10D06F01003244410173002030F3
:100D0000411122C600080100324441017300203025
:100D1000411122C6000893055052B7470040138581
:100D20000740EF20602CAA8785CB93055052B74728
:100D3000004013850740EF20403B03A7818089478F
:100D40006315F700EF20502E01A803A78180854787
:100D50006314F700EF20A06D0100324441017300DD
:100D60002030411122C600080100324441017300C5
:100D70002030411122C6000809659D292A87854730
:100D80006313F7020965D92103A781808947631599
:100D9000F700EF20D03301A803A7818085476314B3
:100DA000F700EF209025010032444101730020300C
:100DB000411122C600080100324441017300203075
:100DC000411122C6000801A0411106C622C4000834
:100DD000EF30A014EF40C025EF20B014EF20E04D1D
:100DE00001469305007D13053030EF3060699306AE
:100DF00000310146854513052006EF20705A930601
:100E0000100213060002F167938507200945EF40A1
:100E1000E002930520030545EF306017854605463F
:100E200081451305C002EF20707F0145EF3060134C
:100E300001A097010020938161A8174100201301B0
:100E4000611C17D500001305A50997F5FF1F9385B1
:100E5000651B1386818263FAC5008322050023A0E7
:100E6000550011059105E3EAC5FE1385818297259A
:100E700000209385A58A6377B5002320050011051E
:100E8000E36DB5FE9302800873A0023097F2FFFF76
:100E90009382C21A93E2120073905230EF404039AD
:100EA00097020000938282F2739012347300203014
:100EB000011122CE00102326A4FE8327C4FE9843EE
:100EC000C167F9177D8F8327C4FE98C38327C4FEAB
:100ED00023A007008327C4FE23A207008327C4FEA4
:100EE00023A407008327C4FE23A607000327C4FE0C
:100EF000B7070240A107631BF700B7070240D843BA
:100F0000B70702401367F700D8C375A20327C4FED2
:100F1000B7070240F107631BF700B7070240D84349
:100F2000B70702401367070FD8C371A20327C4FE97
:100F3000B707024093870703631DF700B707024016
:100F4000D443B70702400567130707F0558FD8C38E
:100F50009DA20327C4FEB707024093874704631B83
:100F6000F700B7070240D443B70702403D67558FEB
:100F7000D8C391A20327C4FEB70702409387870511
:100F8000631CF700B7070240D443B7070240370796
:100F90000F00558FD8C305A20327C4FEB707024030
:100FA0009387C706631CF700B7070240D443B7070F
:100FB00002403707F000558FD8C3F5A80327C4FEB9
:100FC000B707024093870708631CF700B707024082
:100FD000D443B70702403707000F558FD8C3E1A8A5
:100FE0000327C4FEB707024093878740631FF700BB
:100FF000B707024093870740D843B707024093875B
:1010000007401367F700D8C37DA00327C4FEB707C6
:1010100002409387C741631FF700B70702409387D9
:101020000740D843B7070240938707401367070F6D
:10103000D8C351A00327C4FEB707024093870743D4
:101040006311F702B707024093870740D443B707FD
:101050000240938707400567130707F0558FD8C3F1
:1010600099A80327C4FEB707024093874744631F2C
:10107000F700B707024093870740D443B707024001
:10108000938707403D67558FD8C335A00327C4FE1B
:10109000B707024093878745631FF700B7070240F1
:1010A00093870740D443B707024093870740370729
:1010B0000F00558FD8C30100724405618280797199
:1010C00022D60018232EA4FC232CB4FC232604FED5
:1010D0008327C4FD9C432326F4FE0327C4FEE17747
:1010E000BD07F98F2326F4FE832784FD98478327C5
:1010F00084FD9C535D8F832784FD9C4B5D8F8327EC
:1011000084FDDC4B5D8F832784FD9C4F5D8F83279F
:1011100084FDDC4F5D8F832784FDDC535D8F832747
:1011200084FD9C57D98F0327C4FED98F2326F4FE54
:101130008327C4FD0327C4FE98C3832784FDD847B3
:101140008327C4FDD8C3832784FD98438327C4FD28
:1011500098C7832784FDD8438327C4FDD8C70100DF
:10116000325445618280011122CE00102326A4FE54
:101170002324B4FE832784FE91CB8327C4FE9C43A3
:1011800013E717008327C4FE98C311A88327C4FE62
:101190009843C167F9177D8F8327C4FE98C3010068
:1011A000724405618280011122CE00102326A4FE24
:1011B0002324B4FE2322C4FE832744FE99CB832735
:1011C000C4FE9843832784FE5D8F8327C4FE98C3A3
:1011D00021A88327C4FE9843832784FE93C7F7FF83
:1011E0007D8F8327C4FE98C301007244056182800D
:1011F000797122D60018232EA4FC232604FE232472
:1012000004FE0327C4FDB7070010F98F89CBB70789
:101210000240938707409C432324F4FE31A0B70784
:1012200002409C432324F4FE032784FE8327C4FD4D
:10123000F98F89C785472326F4FE19A0232604FECB
:101240008327C4FE3E85325445618280011122CE3F
:1012500000102326A4FE0327C4FEB7070010F98F51
:1012600089CBB7070240938707400327C4FED8C342
:1012700031A0B70702400327C4FED8C3010072445F
:1012800005618280797122D60018232EA4FC2326C2
:1012900004FEB7070140938707402326F4FE832707
:1012A000C4FDDC4763800712B707014093870740FE
:1012B00094438327C4FD9C4313C7F7FFB70701403E
:1012C00093870740758F98C3B707014093870740FE
:1012D000D4438327C4FD9C4313C7F7FFB7070140DE
:1012E00093870740758FD8C38327C4FDDC4303274A
:1012F000C4FEBA972326F4FE8327C4FE94438327B3
:10130000C4FD98438327C4FE558F98C3B707014097
:101310009387074094478327C4FD9C4313C7F7FF77
:10132000B707014093870740758F98C7B7070140FB
:1013300093870740D4478327C4FD9C4313C7F7FF17
:10134000B707014093870740758FD8C78327C4FD2F
:101350009847C147631FF702B707014093870740CB
:1013600094478327C4FD9843B707014093870740FC
:10137000558F98C7B707014093870740D447832705
:10138000C4FD9843B707014093870740558FD8C7DE
:10139000B1A8B7070140938707402326F4FE8327AF
:1013A000C4FD9C470327C4FEBA972326F4FE832777
:1013B000C4FE94438327C4FD98438327C4FE558FFE
:1013C00098C32DA08327C4FDDC430327C4FEBA972E
:1013D0002326F4FE8327C4FE94438327C4FD9C4345
:1013E00013C7F7FF8327C4FE758F98C301003254DB
:1013F00045618280797122D60018232EA4FC232611
:1014000004FE232404FEB7070140938707409C4352
:101410000327C4FDF98F2324F4FEB7070140938707
:101420000740D84B8327C4FDF98F81CB832784FEE7
:1014300089C785472326F4FE19A0232604FE8327A7
:10144000C4FE3E85325445618280011122CE0010D7
:101450002326A4FEB7070140938707400327C4FE55
:10146000D8CB0100724405618280397122DE800090
:101470002326A4FC2324B4FC232604FE232004FEFC
:10148000232404FE232E04FC232204FE232C04FC2C
:10149000832784FC9C47BD8B2326F4FE832784FC92
:1014A0009C47C18B89CB832784FCDC430327C4FE84
:1014B000D98F2326F4FE832784FC83D7070093F774
:1014C000F70FF1CF8327C4FC9C432322F4FE23248F
:1014D00004FE65A8832784FE0547B317F700232E73
:1014E000F4FC832784FC83D707003E878327C4FD51
:1014F000F98F2320F4FE032704FE8327C4FD631124
:10150000F708832784FE8A07232EF4FC8327C4FD73
:101510003D47B317F700232CF4FC832784FD93C7C2
:10152000F7FF032744FEF98F2322F4FE8327C4FD2F
:101530000327C4FEB317F700032744FED98F2322E5
:10154000F4FE832784FC984793078002631BF7000F
:10155000832784FE05473317F7008327C4FCD8CBC5
:1015600005A0832784FC984793078004631AF7003B
:10157000832784FE05473317F7008327C4FC98CBE5
:10158000832784FE85072324F4FE032784FE9D47DA
:10159000E3F2E7F48327C4FC032744FE98C38327C0
:1015A00084FC03D707009307F00F63F1E70E83274E
:1015B000C4FCDC432322F4FE232404FE75A8832705
:1015C00084FEA1070547B317F700232EF4FC8327F9
:1015D00084FC83D707003E878327C4FDF98F23202F
:1015E000F4FE032704FE8327C4FD6312F708832754
:1015F00084FE8A07232EF4FC8327C4FD3D47B317DE
:10160000F700232CF4FC832784FD93C7F7FF0327FF
:1016100044FEF98F2322F4FE8327C4FD0327C4FE72
:10162000B317F700032744FED98F2322F4FE832744
:1016300084FC984793078002631BF700832784FE8E
:10164000A10705473317F7008327C4FCD8CB8327AE
:1016500084FC984793078004631BF700832784FE6C
:10166000A10705473317F7008327C4FC98CB8327CE
:1016700084FE85072324F4FE032784FE9D47E3F0C0
:10168000E7F48327C4FC032744FED8C30100725447
:1016900021618280011122CE00102326A4FEAE8794
:1016A0002322C4FE2315F4FE832744FE99C7035763
:1016B000A4FE8327C4FE98CB31A00357A4FE832742
:1016C000C4FED8CB0100724405618280797122D6B4
:1016D0000018232EA4FC232CB4FC232404FE232274
:1016E00004FE232604FE232004FE8327C4FD63D8C2
:1016F0000700B7070140DC4F2326F4FE31A0B707EF
:101700000140DC432326F4FE8327C4FDC183BD8B47
:101710002320F4FE0327C4FDC167FD17F98F23249E
:10172000F4FE0327C4FDB70730007D8FB7073000F4
:101730006315F7020327C4FEB70700F1FD17F98F01
:101740002326F4FEB7070140D443B707014037070B
:1017500000F17D17758FD8C3ADA00327C4FDB7076F
:101760001000F98F8DCB832704FE0D47B317F700C8
:101770002322F4FE832744FE93C7F7FF0327C4FE0A
:10178000F98F2326F4FE0327C4FEB707000FD98F75
:101790002326F4FE3DA08327C4FDD58392070327AB
:1017A00084FEB317F70093C7F7FF0327C4FEF98F32
:1017B0002326F4FE0327C4FEB707000FD98F232684
:1017C000F4FE832784FD91CF8327C4FDD583920740
:1017D000032784FEB317F7000327C4FED98F2326FF
:1017E000F4FE8327C4FD63D80700B7070140032731
:1017F000C4FED8CF31A0B70701400327C4FED8C329
:101800000100325445618280797122D60018AA877E
:101810002E87A30FF4FCBA87230FF4FC232604FEC3
:101820008347E4FD8D8B8A073D47B317F7002326D6
:10183000F4FE370701408347E4FD898393F7F70FF0
:101840008A07BA9798478327C4FE93C7F7FFB7065E
:1018500001400346E4FD09821376F60F7D8F93174E
:101860002600B69798C7370701408347E4FD898370
:1018700093F7F70F8A07BA9798478346F4FD834793
:10188000E4FD8D8B8A07B397F600B7060140034647
:10189000E4FD09821376F60F5D8F93172600B69745
:1018A00098C70100325445618280011122CE001098
:1018B0002326A4FE8327C4FEFD8B0547B316F7003D
:1018C00037E700E08327C4FE9583938707048A07E0
:1018D000BA9794C30100724405618280011122CE3F
:1018E00000102326A4FE8327C4FEFD8B0547B316F4
:1018F000F70037E700E08327C4FE95839387070648
:101900008A07BA9794C3010072440561828001116D
:1019100022CE00102326A4FEAE87A305F4FE37E7EF
:1019200000E08327C4FEBA970347B4FE2380E74054
:101930000100724405618280011106CE22CC0010A4
:101940002326A4FEB7E700E0BC47898B8DC383271D
:10195000C4FE83C707003E878327C4FE83C72700D2
:10196000920793F7F70FBE853A85553795A0B7E7ED
:1019700000E0BC47898BA9EF8327C4FE03C717008B
:1019800085476318F7028327C4FE83C707003E8795
:101990008327C4FE83C727009207E207E18793E706
:1019A00007F8E207E18793F7F70FBE853A85853799
:1019B00005A08327C4FE83C707003E878327C4FE94
:1019C00083C72700920793F7F70FBE853A858137C3
:1019D0008327C4FEDC4381CB8327C4FE83C7070073
:1019E0003E85E13539A08327C4FE83C707003E85C5
:1019F000F5350100F240624405618280797122D69A
:101A00000018232EA4FC232604FE232404FE2322F4
:101A100004FE232004FEB7170240DC43B18B2326CB
:101A2000F4FE0327C4FE91476302F7020327C4FEB6
:101A3000A1476305F7028327C4FEC5E78327C4FDDA
:101A400037177A001307072098C365A08327C4FDC2
:101A500037177A001307072098C361A8B717024009
:101A6000D843B7073C00F98F2324F4FEB717024090
:101A7000D843C167F98F2322F4FE832784FEC983EC
:101A800089072324F4FE832744FE89EF032784FE7D
:101A9000B7173D00938707903307F7028327C4FDEC
:101AA00098C381A8B7170240D843B7070200F98F3F
:101AB00089CF032784FEB7173D009387079033072C
:101AC000F7028327C4FD98C32DA0032784FEB71710
:101AD0007A00938707203307F7028327C4FD98C352
:101AE00009A88327C4FD37177A001307072098C376
:101AF0000100B7170240DC4393F7070F2326F4FEDB
:101B00008327C4FE91832326F4FEB70700201387A2
:101B100007008327C4FEBA9783C7070093F7F70F20
:101B20002320F4FE8327C4FD9843832704FE335704
:101B3000F7008327C4FDD8C3B7170240DC4393F7EF
:101B400007702326F4FE8327C4FEA1832326F4FE18
:101B5000B7070020138707008327C4FEBA9783C7FF
:101B6000070093F7F70F2320F4FE8327C4FDD84323
:101B7000832704FE3357F7008327C4FD98C7B717A0
:101B80000240D843916793870780F98F2326F4FE9C
:101B90008327C4FEAD832326F4FEB70700201387F6
:101BA00007008327C4FEBA9783C7070093F7F70F90
:101BB0002320F4FE8327C4FDD843832704FE335734
:101BC000F7008327C4FDD8C7B7170240D843B167D1
:101BD000F98F2326F4FE8327C4FEB9832326F4FE5F
:101BE000B70700201387C70B8327C4FEBA9783C7A4
:101BF000070093F7F70F2320F4FE8327C4FDD8478F
:101C0000832704FE3357F7028327C4FD98CB0100D6
:101C1000325445618280011122CE00102326A4FE99
:101C20002324B4FE832784FE99CBB7170240D44BFC
:101C3000B71702400327C4FE558FD8CB21A8B7178A
:101C40000240D44B8327C4FE13C7F7FFB7170240E7
:101C5000758FD8CB0100724405618280011122CEBC
:101C600000102326A4FE2324B4FE832784FE99CBF0
:101C7000B7170240944FB71702400327C4FE558F91
:101C800098CF21A8B7170240944F8327C4FE13C7EB
:101C9000F7FFB7170240758F98CF010072440561B6
:101CA0008280011122CE00102326A4FE2324B4FE3C
:101CB000832784FE99CBB7170240D44FB717024051
:101CC0000327C4FE558FD8CF21A8B7170240D44FA1
:101CD0008327C4FE13C7F7FFB7170240758FD8CF0D
:101CE0000100724405618280797122D60018232E8A
:101CF000A4FC232CB4FC231704FE8327C4FD83D744
:101D000007002317F4FE0357E4FE8D67938707044B
:101D1000F98F2317F4FE832784FD03D70700832759
:101D200084FD83D72700D98F139707014183832729
:101D300084FD83D74700D98F1397070141838327F9
:101D400084FD83D76700D98F1397070141838327C9
:101D500084FD83D78700D98F139707014183832799
:101D600084FD83D7A700D98F139707014183832769
:101D700084FD83D7C700D98F139707014183832739
:101D800084FD83D7E700D98F1397070141838357D9
:101D9000E4FED98F2317F4FE8327C4FD0357E4FE26
:101DA0002390E7008327C4FD83D7C701139707015A
:101DB0004183FD779387F77FF98F1397070141835D
:101DC0008327C4FD239EE700832784FD03D70701F3
:101DD0008327C4FD2398E7000100325445618280C7
:101DE000011122CE00102326A4FE2324B4FE832753
:101DF00084FE8DC38327C4FE83D70700C207C18337
:101E000093E707041397070141838327C4FE2390B8
:101E1000E70005A08327C4FE83D70700C207C1835C
:101E200093F7F7FB1397070141838327C4FE2390A1
:101E3000E7000100724405618280797122D60018A2
:101E4000232EA4FC232CB4FC231704FE8327C4FDFB
:101E500083D707002317F4FE0327C4FDB7370140DB
:101E6000938707C06308F7020327C4FDB707004044
:101E70006302F7020327C4FDB707004093870740BA
:101E8000630AF7000327C4FDB71700409387078054
:101E90006311F7028357E4FE93F7F7F82317F4FE74
:101EA000832784FD03D727008357E4FED98F2317A8
:101EB000F4FE8357E4FE93F7F7CF2317F4FE83274E
:101EC00084FD03D767008357E4FED98F2317F4FE00
:101ED0008327C4FD0357E4FE2390E700832784FD96
:101EE00003D747008327C4FD2396E702832784FD99
:101EF00003D707008327C4FD2394E7020327C4FD0B
:101F0000B7370140938707C0631DF700832784FD1F
:101F100083C787001397070141838327C4FD239854
:101F2000E7028327C4FD0547239AE70001003254E6
:101F300045618280797122D60018232EA4FC232CBF
:101F4000B4FC231504FE231704FE231604FE832786
:101F5000C4FD83D70702C207C183F99B139707010A
:101F600041838327C4FD2390E7028327C4FD83D7E1
:101F700007022317F4FE8327C4FD83D747002316E7
:101F8000F4FE8327C4FD83D787012315F4FE83570E
:101F9000A4FE93F7F7F82315F4FE8357A4FEF19BF4
:101FA0002315F4FE832784FD03D707008357A4FE7F
:101FB000D98F2315F4FE8357E4FEF59B2317F4FE17
:101FC000832784FD03D787008357E4FED98F231727
:101FD000F4FE832784FD03D727008357E4FED98FBF
:101FE0002317F4FE0327C4FDB7370140938707C0CA
:101FF000631CF7068357E4FEDD9B2317F4FE83275B
:1020000084FD03D7A7008357E4FED98F2317F4FE7E
:102010008357E4FEED9B2317F4FE832784FD03D74B
:1020200047008357E4FED98F2317F4FE8357C4FE7D
:1020300093F7F7EF2316F4FE8357C4FE93F7F7DF09
:102040002316F4FE832784FD03D7C7008357C4FEFD
:10205000D98F2316F4FE832784FD03D7E700835727
:10206000C4FED98F2316F4FE8327C4FD0357C4FE94
:102070002392E7008327C4FD0357A4FE239CE700B7
:10208000832784FD03D767008327C4FD239AE702D3
:102090008327C4FD0357E4FE2390E7020100325476
:1020A00045618280797122D60018232EA4FC232C4E
:1020B000B4FC231504FE231704FE231604FE832715
:1020C000C4FD83D70702C207C183BD9B13970701D5
:1020D00041838327C4FD2390E7028327C4FD83D770
:1020E00007022317F4FE8327C4FD83D74700231676
:1020F000F4FE8327C4FD83D787012315F4FE03571D
:10210000A4FEE577FD17F98F2315F4FE8357A4FE8F
:1021100093F7F7CF2315F4FE832784FD83D70700B9
:10212000A2071397070141838357A4FED98F231574
:10213000F4FE8357E4FE93F7F7FD2317F4FE83279D
:1021400084FD83D787009207139707014183835744
:10215000E4FED98F2317F4FE832784FD83D727005D
:1021600092071397070141838357E4FED98F231702
:10217000F4FE0327C4FDB7370140938707C06310FF
:10218000F70A8357E4FE93F7F7F72317F4FE832744
:1021900084FD83D7A70092071397070141838357D4
:1021A000E4FED98F2317F4FE8357E4FE93F7F7FB81
:1021B0002317F4FE832784FD83D7470092071397E4
:1021C000070141838357E4FED98F2317F4FE835719
:1021D000C4FE93F7F7BF2316F4FE0357C4FEFD7742
:1021E0009387F77FF98F2316F4FE832784FD83D727
:1021F000C7008A071397070141838357C4FED98F0D
:102200002316F4FE832784FD83D7E7008A071397FC
:10221000070141838357C4FED98F2316F4FE832719
:10222000C4FD0357C4FE2392E7008327C4FD035770
:10223000A4FE239CE700832784FD03D76700832740
:10224000C4FD239CE7028327C4FD0357E4FE2390CB
:10225000E7020100325445618280797122D600186C
:10226000232EA4FC232CB4FC231504FE231704FE08
:10227000231604FE8327C4FD83D70702C207C18348
:1022800093F7F7EF1397070141838327C4FD23904A
:10229000E7028327C4FD83D707022317F4FE8327B1
:1022A000C4FD83D747002316F4FE8327C4FD83D7DC
:1022B000C7012315F4FE8357A4FE93F7F7F82315FF
:1022C000F4FE8357A4FEF19B2315F4FE832784FDBF
:1022D00003D707008357A4FED98F2315F4FE835735
:1022E000E4FE93F7F7DF2317F4FE832784FD83D7FB
:1022F0008700A2071397070141838357E4FED98F14
:102300002317F4FE832784FD83D72700A2071397A2
:10231000070141838357E4FED98F2317F4FE032777
:10232000C4FDB7370140938707C06312F70A03570C
:10233000E4FEFD779387F77FF98F2317F4FE832759
:1023400084FD83D7A700A207139707014183835712
:10235000E4FED98F2317F4FE8357E4FE93F7F7BF0B
:102360002317F4FE832784FD83D74700A207139722
:10237000070141838357E4FED98F2317F4FE0357E7
:10238000C4FEFD77FD17F98F2316F4FE0357C4FE34
:10239000F977FD17F98F2316F4FE832784FD83D781
:1023A000C70092071397070141838357C4FED98F53
:1023B0002316F4FE832784FD83D7E7009207139743
:1023C000070141838357C4FED98F2316F4FE832768
:1023D000C4FD0357C4FE2392E7008327C4FD0357BF
:1023E000A4FE239EE700832784FD03D7670083278D
:1023F000C4FD239EE7028327C4FD0357E4FE239018
:10240000E7020100325445618280797122D60018BA
:10241000232EA4FC232CB4FC231604FE231504FE57
:10242000231704FE8327C4FD83D7070213970701F0
:102430004183FD77FD17F98F1397070141838327A8
:10244000C4FD2390E7028327C4FD83D70702231529
:10245000F4FE8327C4FD83D747002317F4FE8327A8
:10246000C4FD83D7C7012316F4FE0357C4FEE577E6
:10247000FD17F98F2316F4FE8357C4FE93F7F7CFA9
:102480002316F4FE832784FD83D70700A207139742
:10249000070141838357C4FED98F2316F4FE0357E7
:1024A000A4FEF977FD17F98F2315F4FE832784FD29
:1024B00083D78700B2071397070141838357A4FE90
:1024C000D98F2315F4FE832784FD83D72700B20715
:1024D0001397070141838357A4FED98F2315F4FE78
:1024E0000327C4FDB7370140938707C06316F7027F
:1024F0000357E4FEF177FD17F98F2317F4FE8327C6
:1025000084FD83D7C7009A07139707014183835738
:10251000E4FED98F2317F4FE8327C4FD0357E4FE9E
:102520002392E7008327C4FD0357C4FE239EE700E0
:10253000832784FD03D767008327C4FD2390E70426
:102540008327C4FD0357A4FE2390E7020100325401
:1025500045618280011122CE00102326A4FE23248F
:10256000B4FE832784FE8DC38327C4FE83D7070070
:10257000C207C18393E7170013970701418383279D
:10258000C4FE2390E70039A88327C4FE83D7070041
:10259000C207C183F99B1397070141838327C4FEB8
:1025A0002390E7000100724405618280011122CE70
:1025B00000102326A4FE2324B4FE832784FE95C3A3
:1025C0008327C4FE83D74704139707014183E1772C
:1025D000D98F1397070141838327C4FE2392E70411
:1025E00015A08327C4FE83D74704139707014183AF
:1025F000A167FD17F98F1397070141838327C4FE55
:102600002392E7040100724405618280011122CE09
:1026100000102326A4FEAE872322C4FE2315F4FE59
:10262000832744FE9DC38327C4FE83D7C700139727
:10263000070141838357A4FED98F13970701418374
:102640008327C4FE2396E70035A08327C4FE83D7E3
:10265000C7001397070141838357A4FE93C7F7FF71
:10266000C207C183F98F1397070141838327C4FEF3
:102670002396E7000100724405618280011122CE99
:1026800000102326A4FEAE872322C4FE2315F4FEE9
:10269000832744FE9DC38327C4FE83D7C7001397B7
:1026A000070141838357A4FED98F13970701418304
:1026B0008327C4FE2396E70035A08327C4FE83D773
:1026C000C7001397070141838357A4FE93C7F7FF01
:1026D000C207C183F98F1397070141838327C4FE83
:1026E0002396E7000100724405618280797106D665
:1026F00022D40018232EA4FCAE873687231DF4FCB9
:10270000B287231CF4FCBA87231BF4FC231704FEB6
:10271000835664FD035784FD8357A4FD3A86BE8526
:102720000325C4FD89288327C4FD83D78700231789
:10273000F4FE8357E4FEE19B2317F4FE8357E4FE87
:1027400093E777002317F4FE8357E4FE93F7F7F837
:102750002317F4FE8357E4FE93E707072317F4FEDD
:102760008327C4FD0357E4FE2394E7000100B25021
:10277000225445618280797122D60018232EA4FC50
:10278000AE873687231DF4FCB287231CF4FCBA877E
:10279000231BF4FC231704FE8327C4FD83D7870083
:1027A0002317F4FE8357E4FE93F7F70F2317F4FE85
:1027B000835764FDA207139707014183835784FD64
:1027C000D98F1397070141838357A4FDD98F13979E
:1027D000070141838357E4FED98F2317F4FE832733
:1027E000C4FD0357E4FE2394E70001003254456121
:1027F0008280797122D60018232EA4FCAE87231D77
:10280000F4FC231704FE8327C4FD83D78700231716
:10281000F4FE8357E4FE93F7F7F82317F4FE03570B
:10282000E4FE8357A4FDD98F2317F4FE8327C4FD4C
:102830000357E4FE2394E70001003254456182808F
:10284000797122D60018232EA4FCAE87231DF4FC38
:10285000231704FE8327C4FD83D787012317F4FEC3
:102860008357E4FEDD9B2317F4FE0357E4FE8357F2
:10287000A4FDD98F2317F4FE8327C4FD0357E4FE7C
:10288000239CE7000100325445618280797122D691
:102890000018232EA4FCAE87231DF4FC231704FE8E
:1028A0008327C4FD83D787012317F4FE0357E4FE73
:1028B000FD779387F77FF98F2317F4FE8357A4FDE5
:1028C000A2071397070141838357E4FED98F23178B
:1028D000F4FE8327C4FD0357E4FE239CE7000100B8
:1028E000325445618280797122D60018232EA4FCCF
:1028F000AE87231DF4FC231704FE8327C4FD83D772
:10290000C7012317F4FE8357E4FEDD9B2317F4FE73
:102910000357E4FE8357A4FDD98F2317F4FE8327C2
:10292000C4FD0357E4FE239EE700010032544561D5
:102930008280797122D60018232EA4FCAE87231D35
:10294000F4FC231704FE8327C4FD83D7C701231794
:10295000F4FE0357E4FEFD779387F77FF98F231783
:10296000F4FE8357A4FDA207139707014183835701
:10297000E4FED98F2317F4FE8327C4FD0357E4FE3A
:10298000239EE7000100325445618280797122D68E
:102990000018232EA4FCAE87231DF4FC231704FE8D
:1029A0008327C4FD83D787012317F4FE8357E4FEF2
:1029B000ED9B2317F4FE0357E4FE8357A4FDD98F44
:1029C0002317F4FE8327C4FD0357E4FE239CE7008E
:1029D0000100325445618280797122D60018232E7D
:1029E000A4FCAE87231DF4FC231704FE8327C4FD3B
:1029F00083D787012317F4FE8357E4FE93F7F7BFCD
:102A00002317F4FE8357A4FDA20713970701418300
:102A10008357E4FED98F2317F4FE8327C4FD0357A1
:102A2000E4FE239CE7000100325445618280797105
:102A300022D60018232EA4FCAE87231DF4FC2317F6
:102A400004FE8327C4FD83D7C7012317F4FE8357F1
:102A5000E4FEED9B2317F4FE0357E4FE8357A4FD29
:102A6000D98F2317F4FE8327C4FD0357E4FE239E6A
:102A7000E7000100325445618280797122D6001846
:102A8000232EA4FCAE87231DF4FC231704FE83270A
:102A9000C4FD83D7C7012317F4FE8357E4FE93F7E1
:102AA000F7BF2317F4FE8357A4FDA207139707016E
:102AB00041838357E4FED98F2317F4FE8327C4FD97
:102AC0000357E4FE239EE7000100325445618280F3
:102AD000011122CE00102326A4FEAE872315F4FE9A
:102AE0008327C4FE83D78700C207C183E19B139766
:102AF000070141838327C4FE2394E7008327C4FE94
:102B000083D787001397070141838357A4FED98F8A
:102B10001397070141838327C4FE2394E700010034
:102B2000724405618280011122CE00102326A4FE8A
:102B3000AE872315F4FE8327C4FE83D78700C20720
:102B4000C18393F7F7F71397070141838327C4FEE7
:102B50002394E7008327C4FE83D7870013970701D8
:102B600041838357A4FED98F13970701418383279D
:102B7000C4FE2394E70001007244056182807971EC
:102B800022D60018232EA4FCAE87231DF4FC232696
:102B900004FE231504FE231404FE8327C4FD83D7FB
:102BA00007011397070141838357A4FDF98F23156C
:102BB000F4FE8327C4FD83D7C70013970701418321
:102BC0008357A4FDF98F2314F4FE8357A4FE81CB11
:102BD000835784FE89C785472326F4FE19A0232640
:102BE00004FE8327C4FE3E85325445618280011174
:102BF00022CE00102326A4FEAE872315F4FE8357B1
:102C0000A4FE93C7F7FF1397070141838327C4FEF0
:102C10002398E70001007244056182805D7186C6D9
:102C2000A2C48008232EA4FA232CB4FA232604FE7F
:102C3000232404FE232204FE232004FE232E04FC6E
:102C40008327C4FB232EF4FC8327C4FB83D707010F
:102C5000C207C1832326F4FE0327C4FEB567FD1710
:102C6000F98F2326F4FE832784FB83D767003E87F2
:102C70008327C4FED98F2326F4FE8327C4FE13972F
:102C8000070141838327C4FB2398E7008327C4FB04
:102C900083D7C700C207C1832326F4FE0327C4FEDF
:102CA000BD679387379FF98F2326F4FE832784FB24
:102CB00003D74700832784FB83D78700D98F1397D7
:102CC00007014183832784FB83D7A700D98FC207DD
:102CD000C1833E878327C4FED98F2326F4FE832732
:102CE000C4FE1397070141838327C4FB2396E700A3
:102CF0008327C4FB83D74701C207C1832326F4FE81
:102D00000327C4FEC1679387F7CFF98F2326F4FE0C
:102D1000832784FB83D7C7003E878327C4FED98FD0
:102D20002326F4FE8327C4FE1397070141838327DC
:102D3000C4FB239AE700930784FC3E85EFE01FCC99
:102D40000327C4FDB7470140938707806317F70047
:102D5000832744FD2324F4FE29A0832704FD232494
:102D6000F4FE8327C4FB83D7C700C207C183C20711
:102D7000C18763D20702032784FEBA878607BA9702
:102D80008E073E97832784FB9C438607B357F70241
:102D90002322F4FE05A0032784FEBA878607BA978C
:102DA0008E073E97832784FB9C438A07B357F7021D
:102DB0002322F4FE032744FE93074006B357F7028D
:102DC00092072326F4FE8327C4FE13D747009307F8
:102DD0004006B307F702032744FEB307F74023205A
:102DE000F4FE8327C4FB83D7C700C207C183C20791
:102DF000C18763D20702832704FE8E071387270348
:102E000093074006B357F7029D8B0327C4FED98F63
:102E10002326F4FE05A0832704FE920713872703C9
:102E200093074006B357F702BD8B0327C4FED98F23
:102E30002326F4FE8327C4FE1397070141838327CB
:102E4000C4FB2394E7000100B64026446161828000
:102E5000011122CE00102326A4FE2324B4FE8327D2
:102E600084FE95C38327C4FE83D7C7001397070149
:102E700041838967D98F1397070141838327C4FE54
:102E80002396E70015A08327C4FE83D7C7001397B6
:102E900007014183F977FD17F98F139707014183E4
:102EA0008327C4FE2396E7000100724405618280F7
:102EB000797122D60018232EA4FCAE87232AC4FCE5
:102EC000231DF4FC232404FE232204FE232004FEFD
:102ED000232604FE8327C4FD2326F4FE8357A4FD86
:102EE00093F7F70F958393F7F70F2324F4FE835797
:102EF000A4FDFD8B2322F4FE832744FE0547B31770
:102F0000F7002320F4FE032784FE85476318F700AB
:102F10008327C4FEB1072326F4FE0DA0032784FEF9
:102F200089476318F7008327C4FEC1072326F4FEF0
:102F300031A08327C4FED1072326F4FE832744FD56
:102F400099CB8327C4FE94438327C4FE032704FE42
:102F5000558F98C321A88327C4FE9443832704FE7A
:102F600013C7F7FF8327C4FE758F98C3010032543F
:102F700045618280011122CE00102326A4FEAE8777
:102F80002315F4FE8357A4FE93F7F71F1397070149
:102F900041838327C4FE2392E70001007244056148
:102FA0008280797122D60018232EA4FCAE87231DBF
:102FB000F4FC232604FE8327C4FD83D70700139760
:102FC000070141838357A4FDF98FC207C18389C7D5
:102FD00085472326F4FE19A0232604FE8327C4FE7A
:102FE0003E85325445618280797122D60018232EA5
:102FF000A4FCAE87231DF4FC232204FE232604FE3A
:10300000232004FE232404FE8357A4FD93F7F70F27
:10301000958393F7F70F2320F4FE8357A4FDFD8BD0
:103020002326F4FE8327C4FE0547B317F7002326A3
:10303000F4FE032704FE8547631FF7008327C4FDC2
:1030400083D7C700C207C1833E878327C4FEF98F99
:103050002326F4FE3DA8032704FE8947631FF700DB
:103060008327C4FD83D70701C207C1833E87832717
:10307000C4FEF98F2326F4FE29A88327C4FD83D735
:103080004701C207C1833E878327C4FEF98F2326E9
:10309000F4FE8357A4FDA183C207C1832322F4FE5B
:1030A000832744FE0547B317F7002322F4FE832746
:1030B000C4FD83D70700C207C1833E87832744FE30
:1030C000F98F2322F4FE8327C4FE81CB832744FE9D
:1030D00089C785472324F4FE19A0232404FE8327EF
:1030E00084FE3E85325445618280797122D6001873
:1030F000232EA4FCAE87231DF4FC231704FE231605
:1031000004FE8357A4FDA1832317F4FE8357E4FE36
:103110000547B317F7002316F4FE8357C4FE93C781
:10312000F7FF1397070141838327C4FD2390E7002E
:103130000100325445618280797106D622D400188C
:10314000AA872E87A30FF4FCBA87230FF4FCB96774
:1031500083A707B13E878567938707805CCB83474A
:10316000F4FD2306F4FE8347E4FDA306F4FE1307F3
:10317000C4FE9307C4FE89463A86BE850545EF1016
:10318000D027B96783A707B13E87856793870780F4
:103190001CCB0100B250225445618280797106D661
:1031A00022D40018AA87232CB4FCA30FF4FCB9671F
:1031B00083A707B13E878567938707805CCB8347EA
:1031C000F4FD93E707F893F7F70F2306F4FE832740
:1031D00084FD83C70700A306F4FE1307C4FE93070C
:1031E000C4FE89463A86BE850545EF101021034787
:1031F000D4FE832784FD2380E700B96783A707B146
:103200003E878567938707801CCB0100B25022540C
:1032100045618280011106CE22CC00102326A4FE37
:10322000AE87A305F4FEB96783A707B13E8785671C
:10323000938707805CCB8347B4FEBE860326C4FE1B
:103240008325C4FE0545EF10501BB96783A707B15E
:103250003E878567938707801CCB0100F24062445C
:1032600005618280011106CE22CC4ACA4EC80010E8
:10327000A30704FE3DA09307F4FEBE851305500787
:10328000313F03A7C1868967938707F43357F70255
:10329000BA878A07BA973E8981494A85CE85EF1059
:1032A000F0210347F4FEC947E317F7FC0100F240A1
:1032B00062445249C24905618280797106D622D49E
:1032C0004AD24ED052CE56CC0018A30F04FC03A70E
:1032D000C1868967938707F43357F702BA878A074D
:1032E000BA9786073E8681463285B685EF10101D57
:1032F000094881472D4793062002130610029305C3
:1033000000020545EF10007CB13F9305000813054E
:10331000B0061D3503A7C1868967938707F4B357A5
:10332000F70286073E8A814A5285D685EF1010192A
:103330009307F4FDBE851305B0068D3503A7C1863E
:103340008967938707F43357F702BA878A07BA97D2
:1033500086073E8981494A85CE85EF10301603479E
:10336000F4FD93071004E315F7FC85451305B0063B
:10337000E13381451305C006C133854569456D3B81
:103380009D456545553BE1456D457D33C1457145DD
:1033900065338D4575454D330100B25022541259A5
:1033A0008259724AE24A45618280011106CE22CCDE
:1033B0000010930730FC2304F4FE930784FE9D4520
:1033C0003E85893D834794FEA207139707014187F5
:1033D0008347A4FEC207C187D98F1397070141878E
:1033E000239AE1848347B4FEA2071397070141871C
:1033F0008347C4FEC207C187D98F1397070141874E
:10340000239BE1848347D4FEA207139707014187DA
:103410008347E4FEC207C187D98F1397070141870D
:10342000239CE1840100F2406244056182804111E5
:1034300022C60008B967938787B5DC4383D7470066
:1034400013970701418383C7F185BE861377F70F72
:103450009387C185B6972380E70083C7F1858507E9
:1034600013F7F70FA38FE18403C7F1858547631A2C
:10347000F70003C7C1859307500A6304F700A38FC1
:10348000018403C7F1858D476317F700A38F01847B
:1034900005472380E1860100324441018280797131
:1034A00006D622D44AD24ED00018232EA4FC232CB8
:1034B000B4FC23800186231704FE69A0930750FA09
:1034C0002304F4FE8357E4FE8A07032784FDBA979A
:1034D0008397070093F7F70FA304F4FE8357E4FEE6
:1034E0008A07032784FDBA97839727002316F4FEE3
:1034F0008357C4FEA183C207C18393F7F70F230547
:10350000F4FE8357C4FE93F7F70FA305F4FE930769
:1035100084FE1146BE850325C4FDEF10F02703A7E6
:10352000C1868967938707F4B357F70286073E89F8
:1035300081494A85CE85EF1060788357E4FE850780
:103540002317F4FE0357E4FEA147E3F9E7F6010071
:1035500083C7018693F7F70FE5DF2380018601001B
:103560009387C18503C717009307F00FE31AF7FE8F
:103570009387C18503C727009307F00FE312F7FE77
:103580000100B250225412598259456182807971EA
:1035900006D622D40018232EA4FC232CB4FC231717
:1035A00004FE45A0930750FA2304F4FEC557A30474
:1035B000F4FE8357E4FE8A07032784FDBA978397B6
:1035C00007002316F4FE8357C4FEA183C207C183FC
:1035D00093F7F70F2305F4FE8357C4FE93F7F70F15
:1035E000A305F4FE930784FE1146BE850325C4FDA2
:1035F000EF10901A010083C7018693F7F70FE5DFFC
:10360000238001869387C18583C71700A2079396FD
:103610000701C1869387C18583C7270013970701D8
:1036200041878357E4FE8A07032684FDB297558FAE
:10363000420741872391E7008357E4FE850723175C
:10364000F4FE0357E4FE9D47E3FEE7F40100B250A9
:10365000225445618280411106C622C40008130627
:103660008004B1450545EF00407385460146854518
:103670005D45EF00A07A13068004B1450145EF00D7
:10368000C0718546014685455945EF002079010006
:10369000B240224441018280411106C622C4000882
:1036A000B14501454D2E0100B240224441018280C6
:1036B000011106CE22CC0010930700042307F4FE6C
:1036C0009D47A307F4FE05A00347F4FE8347E4FEED
:1036D000BA979146014681453E85D9218347F4FE3C
:1036E000FD17A307F4FE8347F4FEF9FF83A70187C4
:1036F0003E8789679386874B3A86B7170140938543
:103700008700B707024013854704CD2A8546014646
:1037100081457945EF0080700100F2406244056107
:103720008280411106C622C40008054723A4E18017
:10373000370700201307871623A8E186C5464146B0
:103740008967938507580545EF10406F8545054506
:10375000EF1010090145EF00D00023800186B70764
:103760000020938547030545EFF07FE22380018623
:10377000B7070020938507010545EFF05FD223804E
:103780000186B7070020938547030545EFF03FE02A
:10379000EF00A078313F09377D3D0100B24022445F
:1037A00041018280411122C6000883C71186B1E31E
:1037B000B7070240938747049443B70702409387B3
:1037C000470441677917758F98C3B70702409387FD
:1037D000470409671307874BD8C3B707024093878D
:1037E00047049843B70702409387470413671700BD
:1037F00098C30100324441018280411122C6000871
:103800000547A380E186B7070240938747049443A6
:10381000B70702409387470441677917758F98C3AC
:103820000100324441018280411122C60008B9677B
:10383000938787B5DC4383D74700139707014183FC
:1038400083C77186BE861377F70F93874186B69735
:103850002380E70083C77186850713F7F70FA383DB
:10386000E18603C771868547631AF70003C741865F
:103870009307500A6304F700A383018603C7718688
:103880008D476317F700A383018605472384E186EC
:103890000100324441018280411122C60008B7076D
:1038A000024093874704056713070796D8C3B707F5
:1038B0000240938747049843B70702409387470421
:1038C0001367170098C301003244410182804111FF
:1038D00022C600080547A384E186B7070240938704
:1038E00047049443B7070240938747044167791719
:1038F000758F98C301003244410182805D7186C694
:10390000A2C48008232EA4FA232CB4FA232AC4FAD2
:103910002328D4FA0327C4FBB7070240A107630199
:10392000F7060327C4FBB7070240F107630AF70451
:103930000327C4FBB7070240938707036302F7041A
:103940000327C4FBB707024093874704630AF702C3
:103950000327C4FBB7070240938787056302F7027A
:103960000327C4FBB70702409387C706630AF70023
:103970000327C4FBB7070240938707086317F700C4
:1039800085450545EFE02FA9A9A80327C4FBB70784
:103990000240938787406302F7040327C4FBB707FD
:1039A00002409387C741630AF7020327C4FBB707A6
:1039B0000240938707436302F7020327C4FBB7075C
:1039C000024093874744630AF7000327C4FBB70705
:1039D0000240938787456316F70085450945EFE068
:1039E0008FA30325C4FBEFD0AFCC832784FB232216
:1039F000F4FC832744FB2324F4FC232604FC8327C4
:103A000004FB2328F4FC232A04FC93070008232C3E
:103A1000F4FC232E04FC232004FE232204FE8D67E5
:103A20002324F4FE232604FE930744FCBE850325CD
:103A3000C4FBEFD0CFE8054689450325C4FBEFD092
:103A40008FF685450325C4FBEFD0EFF10100B640AA
:103A5000264461618280797106D622D40018232E13
:103A6000A4FC232CB4FC85450545EFE02F9F83275C
:103A7000C4FD81EB8545856713850780EFE00F9EC8
:103A800035A80327C4FD85476317F700854505451D
:103A9000EFE02FA125A00327C4FD89476317F70096
:103AA00085450945EFE0EF9F11A80327C4FD8D4729
:103AB0006316F70085451145EFE0AF9E914601463C
:103AC0008145032584FDE928FD572314F4FE2312C4
:103AD00004FE231504FE231304FE230604FEB96727
:103AE0000327C4FD0A07938787B3BA979C433E8791
:103AF000930744FEBE853A85EFE02FB4B9670327EC
:103B0000C4FD0A07938787B3BA979C438146216611
:103B100081453E85EFE09FBDB9670327C4FD0A07D5
:103B2000938787B3BA979C43930500073E85EFE0E0
:103B30005FCCB9670327C4FD0A07938787B3BA9799
:103B40009C4391453E85EFE0BFF8B9670327C4FD6C
:103B50000A07938787B3BA979C43930500083E856D
:103B6000EFE07FFCB9670327C4FD0A07938787B39B
:103B7000BA979C4385453E85EFE0DF9DB9670327F3
:103B8000C4FD0A07938787B3BA979C43054691659E
:103B90003E85EFE0BFAE0100B25022544561828005
:103BA000797106D622D40018232EA4FC232CB4FC51
:103BB000B2872328D4FCA30BF4FC8327C4FD958390
:103BC00093F7F70F9D8BA307F4FE8327C4FD93F7AC
:103BD000F70FFD8B2307F4FE0327C4FD93070008AE
:103BE000630DF7148327C4FD958391E7854511453F
:103BF000EFE0CF8661A88327C4FD13D75700854720
:103C00006317F70085452145EFE04F8541A08327E5
:103C1000C4FD13D7570089476317F7008545414511
:103C2000EFE0CF83A5A08327C4FD13D757008D47AE
:103C30006318F700854513050002EFE02F82B9A055
:103C40008327C4FD13D7570091476318F7008545B4
:103C500013050004EFE08F8015A88327C4FD13D758
:103C6000570095476318F700854513050008EFD006
:103C7000FFFE29A88327C4FD13D757009947631770
:103C8000F700854513050010EFD05FFD8347E4FE84
:103C90000547B317F700C207C1832310F4FE0327BB
:103CA00084FD85476317F702832704FDC207C1839C
:103CB000A183C207C18389E78D472322F4FE11A89F
:103CC000832704FDC207C183A183C207C1832322C6
:103CD000F4FE832704FDC207C18393F7F70F232463
:103CE000F4FE0347F4FEB9670A07938707B1BA9752
:103CF0009C433E87930704FEBE853A85EFD0EFF6DE
:103D0000032784FD8547631BF7020347F4FEB96769
:103D10000A07938707B1BA979C43BE868347E4FEA0
:103D20000547B317F700C207C183034774FD3A86FE
:103D3000BE853685EFD01F9611A00100B2502254E7
:103D400045618280797122D60018232EA4FC832736
:103D5000C4FD958393F7F70F9D8BA307F4FE83278C
:103D6000C4FD93F7F70FFD8B2307F4FE0347F4FE22
:103D7000B9670A07938707B1BA979C439C470347E3
:103D8000E4FE85463397E600F98F99C3854711A075
:103D900081473E85325445618280797106D622D4AE
:103DA0000018232EA4FC232CB4FC232AC4FC854534
:103DB0000545EFD0BFEA832644FD01468145032532
:103DC000C4FDEFF0FFDD8327C4FD958313F7F70FE4
:103DD0008327C4FD93F7F70FFD8B93F7F70FBE858D
:103DE0003A85EFD07FA28327C4FDFD8B0547B3172B
:103DF000F7002320F4FE232204FE832784FD2324DE
:103E0000F4FE85472326F4FE930704FE3E85EFD09B
:103E10006FC70100B250225445618280797106D685
:103E200022D40018232EA4FCAE873687A30DF4FC01
:103E3000B287230DF4FCBA87A30CF4FC8327C4FDDE
:103E400093F7F70F2304F4FE8347B4FDA304F4FEB5
:103E50008347A4FD2305F4FE834794FD2326F4FE47
:103E6000930784FE3E85EFD03FADB7E700E098436F
:103E7000FD777D8FB727002083A707625D8FB72767
:103E8000002023A0E762B7E700E0D843B70700109F
:103E9000FD177D8FB727002093870762DC435D8F76
:103EA000B727002093870762D8C3B72700209387DE
:103EB000076203C7870085476313F70031200100BD
:103EC000B250225445618280411122C60008B7E7F2
:103ED00000E07D5723A0E718B7E700E07D5723A255
:103EE000E7180100324441018280411122C60008D6
:103EF000B7E700E0372700200327076223A0E71079
:103F0000B7E700E03727002013070762584323A2D2
:103F1000E7100100324441018280011106CE22CC1B
:103F20000010B72700209387076205472384E70026
:103F3000B727002083A7076291EBB727002093875C
:103F40000762DC4381E7A30704FE21A08547A3079E
:103F5000F4FE9D3F8347F4FE3E85F24062440561D6
:103F60008280011106CE22CC0010AA87A307F4FE9E
:103F70008347F4FE81EBB7270020938707622384F1
:103F80000700A5370100F240624405618280797123
:103F900006D622D40018232EA4FCAE87231DF4FCE1
:103FA0008327C4FD81EB8545856713850780EFD0A6
:103FB000FFCA35A80327C4FD85476317F700854569
:103FC0000545EFD01FCE25A00327C4FD8947631701
:103FD000F70085450945EFD0DFCC11A80327C4FDC4
:103FE0008D476316F70085451145EFD09FCB83576A
:103FF000A4FD91EFB967938607AAB967138607B244
:1040000093052003B967138547AAEF80207B03A798
:10401000C1869307007DB357F702C207C183FD171E
:10402000C207C1832314F4FE8357A4FD8607C20789
:10403000C183FD17C207C1832312F4FE231504FEBA
:10404000231304FE230604FEB9670327C4FD0A07F1
:10405000938787B3BA979C433E87930744FEBE85F8
:104060003A85EFD09FDDB9670327C4FD0A07938720
:1040700087B3BA979C43054685453E85EFE00FD947
:10408000B9670327C4FD0A07938787B3BA979C4390
:1040900085453E85EFE0BFB58327C4FD89EB8546A6
:1040A0000946854513059002EFF05FD7B9A00327B5
:1040B000C4FD8547631AF700854609468545130503
:1040C000C002EFF0BFD515A80327C4FD8947631AC6
:1040D000F7008546094685451305D002EFF01FD449
:1040E00029A80327C4FD8D476319F70085460946B3
:1040F00085451305E002EFF07FD2B9670327C4FDC1
:104100000A07938787B3BA979C4385453E85EFE0BE
:104110006FC40100B250225445618280011106CE65
:1041200022CC00102326A4FE0327C4FE9307002000
:104130006307F7240327C4FE9307002063EAE70A16
:104140000327C4FE930710106300F71C0327C4FE67
:104150009307101063E2E7040327C4FE8947630D49
:10416000F7160327C4FE894763ECE7008327C4FEE4
:10417000638407140327C4FE85476307F714E5AC7F
:104180000327C4FE8D476301F7160327C4FE930778
:1041900000106303F716C5A40327C4FE930700119C
:1041A000630CF7180327C4FE9307001163EFE700C1
:1041B0000327C4FE930720106300F7160327C4FEED
:1041C000930730106302F7167DA40327C4FE9307FC
:1041D00020116304F7180327C4FE930720116365B9
:1041E000F7160327C4FE930730116301F71861A483
:1041F0000327C4FE930730216300F7200327C4FE82
:104200009307302163EEE7040327C4FE93073020B1
:104210006300F71A0327C4FE9307302063EFE7001B
:104220000327C4FE930710206303F7160327C4FE79
:10423000930720206305F7163DAC0327C4FE9307C0
:1042400010216309F7180327C4FE9307102163ECBC
:10425000E7180327C4FE930700216304F71621AC77
:104260000327C4FE930700306303F71C0327C4FE33
:104270009307003063EFE7000327C4FE9307002293
:104280006305F7180327C4FE930710226308F71885
:10429000DDA20327C4FE93072030630CF71A03271F
:1042A000C4FE93072030636DF7180327C4FE9307FD
:1042B00030306309F71AC1A2930680310146854563
:1042C0002145EFF0FF8D45AA9306803101468545D3
:1042D0002545EFF0FF8C45A29306803101468545C8
:1042E0002945EFF0FF8B41AA9306803101468545B1
:1042F0002D45EFF0FF8A41A29306803101468545A6
:104300000145EFF0FF8985AA930680310146854576
:104310000545EFF0FF8885A293068031014685456B
:104320000945EFF0FF8781AA930680310146854554
:104330000D45EFF0FF8681A2930680310146854549
:104340003D45EFF0FF8505AA93068031014685457E
:1043500013053002EFF0DF8439AA9306803101465D
:1043600085451305A002EFF0BF8331A2930680318B
:10437000014685451305B002EFF09F82EDA8930634
:104380008031014685451945EFF09F81EDA09306E8
:104390008031014685451D45EFF09F80E9A89306D1
:1043A00080310146854513050002EFF06FFFE1A063
:1043B000930680310146854513051002EFF04FFE4C
:1043C0005DA8930680310146854513056004EFF032
:1043D0002FFD55A0930680310146854513057004D5
:1043E000EFF00FFC49A8930680310146854513057F
:1043F0008004EFF0EFFA41A0930680310146854535
:1044000013059004EFF0CFF9BDA09306803101466B
:10441000854513054002EFF0AFF8B1A8930680314F
:104420000146854513055002EFF08FF7A9A09306CA
:1044300080310146854513056002EFF06FF625A82F
:10444000930680310146854513057002EFF04FF564
:104450001DA0930680310146854513058002EFF0CB
:104460002FF411A89306803101468545130590026B
:10447000EFF00FF301000100F24062440561828019
:10448000397106DE22DC80002326A4FC2324B4FC40
:104490002322C4FC231704FE0325C4FCEFF01FC82D
:1044A0008327C4FCA18381EB85458567138507803D
:1044B000EFD0CFFAA1A08327C4FC13D7870085478C
:1044C0006317F70085450545EFD0AFFD05A88327A5
:1044D000C4FC13D7870089476317F7008545094552
:1044E000EFD02FFC21A88327C4FC13D787008D476A
:1044F0006316F70085451145EFD0AFFA85450545B0
:10450000EFD0CFF58327C4FC13D74700C147631A08
:10451000F7008545B707160013850704EFD00F9BFA
:10452000B9A88327C4FC13D74700C547631AF7000F
:104530008545B707180013850730EFD02F9981A064
:104540008327C4FC13D7470093071002631AF700B0
:104550008545B7171A00138507C0EFD02F9705A020
:104560008327C4FC13D74700930720026319F70081
:104570008545B7171A0013850780EFD02F95B71719
:104580000240DC43C98313F7F700B7177A0093871B
:1045900007203307F702B727F400938707403E97B9
:1045A00023A6E18603A7C186832784FCB357F702BD
:1045B000C1832317F4FE03A7C1868357E4FE850752
:1045C000BE86832784FCB387F602B357F70223160F
:1045D000F4FE0357C4FE832744FC3307F7028967C0
:1045E00093870771B357F7022315F4FE8357C4FE70
:1045F000FD17C207C1832312F4FE8357E4FE231084
:10460000F4FE231304FE231104FE230404FE930787
:1046100000072318F4FC85472319F4FC231A04FC33
:104620008357A4FE231BF4FC8947231CF4FC894711
:10463000231DF4FC231E04FC231F04FC8327C4FC5D
:1046400013D78700B9670A07938787B3BA979C4344
:104650003E87930704FEBE853A85EFD00FFE832781
:10466000C4FC8D8BB9EF8327C4FC13D78700B967CF
:104670000A07938787B3BA979C433E87930704FD45
:10468000BE853A85EFD01F8B8327C4FC13D78700E4
:10469000B9670A07938787B3BA979C43A1453E85BC
:1046A000EFE00F9A8327C4FC13D78700B9670A0786
:1046B000938787B3BA979C4391453E85EFE00FAD52
:1046C00089A28327C4FC13F7370085476311F706D7
:1046D0008327C4FC13D78700B9670A07938787B37A
:1046E000BA979C433E87930704FDBE853A85EFD079
:1046F0007F9B8327C4FC13D78700B9670A0793877A
:1047000087B3BA979C43A1453E85EFE02F98832756
:10471000C4FC13D78700B9670A07938787B3BA9792
:104720009C43930500403E85EFE00FABD9A883275B
:10473000C4FC13F7370089476310F7068327C4FCCE
:1047400013D78700B9670A07938787B3BA979C4343
:104750003E87930704FDBE853A85EFD01FB08327BF
:10476000C4FC13D78700B9670A07938787B3BA9742
:104770009C43A1453E85EFE00F978327C4FC13D7E8
:104780008700B9670A07938787B3BA979C43914517
:104790003E85EFE0CFA9B5A08327C4FC13F737000F
:1047A0008D476310F7068327C4FC13D78700B967CA
:1047B0000A07938787B3BA979C433E87930704FD04
:1047C000BE853A85EFD07FC48327C4FC13D787000A
:1047D000B9670A07938787B3BA979C43A1453E857B
:1047E000EFE02F958327C4FC13D78700B9670A072A
:1047F000938787B3BA979C43930500403E85EFE0CB
:10480000CFA78327C4FC13D78700B9670A0793870C
:1048100087B3BA979C4385453E85EFD0BFD38327A6
:10482000C4FC13D78700B9670A07938787B3BA9781
:104830009C4385453E85EFD07FD70100F2506254FE
:1048400021618280797122D60018232EA4FC232CAA
:10485000B4FC8327C4FD13D78700B9670A07938781
:1048600087B3BA979C4383D7C7022317F4FE035735
:10487000E4FE832784FD3307F70289679387077176
:10488000B357F7022316F4FE8327C4FDA18385E303
:104890008327C4FD13F73700B75700109387D7B0AD
:1048A000BA978A073E878357C4FE1CC349A0832753
:1048B000C4FD13D7870085476310F7028327C4FD23
:1048C00013F73700B7070010B507BA978A073E8776
:1048D0008357C4FE1CC3A1A88327C4FD13D7870038
:1048E00089476311F7028327C4FD13F73700B70721
:1048F00000109387D710BA978A073E878357C4FE64
:104900001CC335A08327C4FD13D787008D476310D0
:10491000F7028327C4FD13F73700B707001093870A
:10492000D720BA978A073E878357C4FE1CC301006D
:10493000325445618280011106CE22CC001023261C
:10494000A4FE2324B4FE2322C4FE2320D4FE832706
:10495000C4FE89EB93068031054685451545EFF089
:104960002FA499A80327C4FEC147631BF700930631
:1049700080310546854513053002EFF06FA22DA862
:104980000327C4FE93070002631BF70093068031E0
:10499000054685451305D002EFF08FA031A8B96711
:1049A000938647ADB967138687B49305D002B9677C
:1049B000138587ADEF709060032784FE8547631AE7
:1049C000F70093068031054685451D45EFF04F9D64
:1049D00099A8032784FEC547631BF700930680311F
:1049E0000546854513055002EFF08F9B2DA8032740
:1049F00084FE93071002631BF7009306803105467F
:104A000085451305F002EFF0AF9931A8B967938699
:104A100047ADB967138687B493052003B96713853B
:104A200087ADEF70B059032744FE8947631AF7003A
:104A300093068031054685451945EFF06F96B5A080
:104A4000032744FEC947631BF700930680310546E0
:104A5000854513054002EFF0AF9481A8032744FE7B
:104A600093072002631BF7009306803105468545B6
:104A70001305E002EFF0CF920DA8032744FE930741
:104A800030026317F700930730022322F4FE31A8A7
:104A9000B967938647ADB967138687B493058003DA
:104AA000B967138587ADEF707051930600310546E5
:104AB0008545032504FEEFF0AF8E0100F24062440D
:104AC000056182805D7186C6A2C480082326A4FC8D
:104AD0002324B4FC2322C4FC2320D4FC232EE4FA98
:104AE000232A04FBA30DF4FA8327C4FC81EB85453C
:104AF000856713851700EFD06F9621A80327C4FCA4
:104B000085476318F7008545916713851700EFD037
:104B10004F998326C4FB032604FC832544FC03250C
:104B200084FCEFF05FE1231E04FC93074010231F79
:104B3000F4FC231004FE8347B4FB05476383E702BC
:104B400005476344F70089CB81A009476381E702E9
:104B50000D476384E7020DA8231104FE231204FE0F
:104B600025A0231104FE85472312F4FE31A88947AE
:104B70002311F4FE231204FE01A889472311F4FE39
:104B800085472312F4FE0100930700202313F4FE4F
:104B9000832744FBC207C1838E07C207C183231446
:104BA000F4FE231504FE9D472316F4FE0327C4FCE0
:104BB0000A0793878181BA979C433E879307C4FD78
:104BC000BE853A85EFD04F92032784FCC147631618
:104BD000F70085450545EFC07FAF0327C4FC0A07F2
:104BE00093878181BA979C4385453E85EFD04F9F3F
:104BF0000100B640264461618280011122CE00107E
:104C00002326A4FE2324B4FE2322C4FE2320D4FEA4
:104C100059A801000327C4FE0A0793878181BA9728
:104C20009C4383D78700C207C183898BE5D783273D
:104C300084FE138717002324E4FE83C6070003279E
:104C4000C4FE0A0793878181BA979C433E87939756
:104C50000601C1832316F700832744FEA9C701007C
:104C60000327C4FE0A0793878181BA979C4383D7A1
:104C70008700C207C183858BE5D70327C4FE0A07D7
:104C800093878181BA979C4383D7C7009396070186
:104C9000C182832744FE138717002322E4FE13F703
:104CA000F60F2380E700832704FE1387F7FF2320F6
:104CB000E4FEA5F30100724405618280011122CE59
:104CC00000102324A4FE2326B4FE37F700E023209F
:104CD000070037F700E02302070037F700E0A302E0
:104CE000070037F700E02303070037F700E0A303CE
:104CF000070037F700E02304070037F700E0A304BC
:104D0000070037F700E02305070037F700E0A305A9
:104D1000070037F700E0854614C3010037F700E0CD
:104D200011071843BA8701480327C4FEC286636D82
:104D3000D7000327C4FEC286E312D7FE032784FEF2
:104D4000BE866363D700D9BF0100724405618280CB
:104D5000011106CE22CC00102326A4FE2324B4FE8B
:104D60008327C4FE85E7032784FE85476310F70287
:104D700093068031014685452545EFE07FE2914667
:104D8000014681452945EFE0BFE165A00327C4FE48
:104D900089476312F7029306803101468545130562
:104DA0006002EFE0FFDF9146014681451305700286
:104DB000EFE01FDFBDA80327C4FEC1476310F70261
:104DC00093068031014685450945EFE07FDD914638
:104DD000014681450D45EFE0BFDCA1A80327C4FED5
:104DE000930700026312F70293068031014685455E
:104DF0001305A002EFE0DFDA914601468145130575
:104E0000B002EFE0FFD935A00327C4FE93072002CC
:104E10006311F70293068031014685451305A0040E
:104E2000EFE01FD89146014681451305B004EFE03D
:104E30003FD70100F240624405618280797106D655
:104E400022D40018232EA4FC232CB4FC232AC4FC57
:104E50002328D4FC85450545EFC05FE0832504FD8C
:104E6000032544FDEFF0DFEE032744FD8947631B74
:104E7000F700032704FD8D476316F70085451145AC
:104E8000EFC0DF84032744FD93072002631FF70070
:104E9000032704FD930730026319F7008545B70720
:104EA000140013850701EFC07F828327C4FD91E7BB
:104EB00085451165EFC09FDA35A00327C4FD8547FE
:104EC0006318F700854537050200EFC09FDD19A87C
:104ED0000327C4FD89476317F7008545370504009C
:104EE000EFC03FDC832784FD2320F4FE231204FE61
:104EF000231304FE231404FE231604FEB1472315D6
:104F0000F4FEB9670327C4FD0A07938787B5BA97EC
:104F10009C433E87930704FEBE853A85EFD01FD0A1
:104F2000B9670327C4FD0A07938787B5BA979C43DF
:104F300085453E85EFD0DFF10100B2502254456136
:104F40008280011122CE00102326A4FEAE87A30585
:104F5000F4FE0100B9670327C4FE0A07938787B5EB
:104F6000BA979C4383D70700C207C18393F707080A
:104F7000F5D3B9670327C4FE0A07938787B5BA97A5
:104F80009C433E878347B4FEC207C1832312F700C8
:104F90000100724405618280011106CE22CC00100E
:104FA0002326A4FE2324B4FE2322C4FE31A8832793
:104FB00084FE138717002324E4FE83C70700BE8501
:104FC0000325C4FEEFF0FFF7832744FE1387F7FFA6
:104FD0002322E4FEE9FF0100F24062440561828081
:104FE000011106CE22CC00102326A4FEAE87A30515
:104FF000F4FEB9670327C4FE0A07938787B5BA97FB
:105000009C430546930550523E85EFD07FEA8327A7
:10501000C4FE938757030347B4FEBA86014685450D
:105020003E85EFE0BFDF0100F2406244056182800F
:10503000411106C622C40008B7170240DC43C983E9
:1050400013F7F700B7177A00938707203307F702A3
:10505000B727F400938707403E9723A6E18685464D
:105060000146F167938507200145EFF03FDD010020
:10507000B240224441018280797106D622D40018C0
:10508000232EA4FC232CB4FC232AC4FC232604FED8
:1050900099A00100B96783A787B5930500043E85F1
:1050A000EFD03FF0AA87FDD7B96783A787B5BE8643
:1050B000832784FD13871700232CE4FC83870700D4
:1050C000C207C183BE853685EFD0DFEA8327C4FEE1
:1050D00085072326F4FE0327C4FE832744FDE34A05
:1050E000F7FA832744FD3E85B25022544561828001
:1050F000011122CE0010232604FE232404FEB7173C
:1051000002409443B71702404167558F98C3B717C1
:1051100002409843B7070200F98F2324F4FE832747
:10512000C4FE85072326F4FE832784FE99E7032720
:10513000C4FE93070050E31CF7FCB71702409843E6
:10514000B7070200F98F89C785472324F4FE19A009
:10515000232404FE032784FE85476317F70CB72733
:1051600002409843B72702401367070198C3B72747
:1051700002409843B7270240719B98C3B72702406B
:105180009843B72702401367270098C33717024098
:10519000B71702405843D8C337170240B717024029
:1051A0005843D8C337170240B71702405843D8C3F3
:1051B000B7170240D443B71702403707C1FF7D1726
:1051C000758FD8C3B7170240D443B71702403707CB
:1051D0002500558FD8C3B71702409443B717024034
:1051E00037070001558F98C30100B7170240984355
:1051F000B7070002F98FF5DBB7170240D843B7179E
:105200000240719BD8C3B7170240D843B71702407A
:1052100013672700D8C30100B7170240DC4313F718
:10522000C700A147E31AF7FE0100724405618280BE
:10523000411106C622C40008B71702409843B717A9
:1052400002401367170098C3B7170240D443B7173B
:1052500002403707FFF8758FD8C3B7170240944351
:10526000B71702403707F7FE7D17758F98C3B7173A
:1052700002409443B71702403707FCFF7D17758F34
:1052800098C3B7170240D443B7170240370781FFCE
:105290007D17758FD8C3B717024037079F0098C78F
:1052A000EFF01FE50100B24022444101828041112C
:1052B00006C622C400081307C0F82388E188F1213C
:1052C000EF00A06EEF00F06F814513053030EFF076
:1052D0006FD783C7B18895EB83C7C18891C703C7D0
:1052E000C18899476313F70283C7D188858B93F7E9
:1052F000F70F81EF83C7F18889EB83C7E188858B3E
:1053000093F7F70F99E3EF10C05483C7B18899C39F
:10531000EF10D05083C7B188A1E383C7C18891C77C
:1053200003C7C18899476319F70283C7D188858B62
:1053300093F7F70F95E383C7F18899EF03D7E180DF
:105340009307200363FAE70083C7E188858B93F70F
:10535000F70F99E3EF30701583C7C18881CB03C77E
:10536000C18899476304F700EF30904603D7E18086
:105370009307200363EAE70083D7E180850713974B
:10538000070141832397E18003D701819307800CB4
:1053900063EAE70083D701818507139707014183FB
:1053A0002398E18083C7B188A1E383C7C18891C7EF
:1053B00003C7C18899476319F70283C7D188858BD2
:1053C00093F7F70F95E383C7F18899EF83C7E188D7
:1053D000858B93F7F70F89EB03D701819307800C37
:1053E00063F4E700EF40906383C7E188858B93F710
:1053F000F70FB5CB85679385873813053030EFF00D
:105400006FC403C71189BD4763EAE70083C71189E9
:10541000850713F7F70FA388E188B1A003C71189A7
:105420009307800763E5E70283C71189850713F7B0
:10543000F70FA388E18883C7E1888D8B13F7F70FF7
:105440008D476312F70235472394E18229A883C769
:10545000E188850713F7F70F2387E188094723942D
:10546000E1822398018083C7B18885E783C7C1881B
:1054700091C703C7C1889947631DF70083C7D188C7
:10548000858B93F7F70F91E783C7F18899E3EF30A6
:10549000B05803C7F18885476311F70283C7E188D5
:1054A000858B93F7F70F81CB83C7E188850713F7C7
:1054B000F70F2387E188EF40406B83C7E1888D8B2E
:1054C00013F7F70F85476312F704B7270020938778
:1054D000C76283C7D7023E87B72700209387076636
:1054E00083C7D702BA9713D7F701BA978587B3074F
:1054F000F04093F7F70F9387E70593F7F70F1397AC
:1055000087016187238AE1866DAA83C7E1888D8B35
:1055100013F7F70F8D476312F704B727002093871F
:10552000C76283C7E7013E87B727002093870766D6
:1055300083C7E701BA9713D7F701BA978587B307EF
:10554000F04093F7F70F9387E70593F7F70F13975B
:1055500087016187238AE186ADA2B7270020938760
:10556000C76203C79701B72700209387076683C7E1
:105570009701637DF702B72700209387C76283C72F
:1055800097013E87B72700209387076683C7970157
:10559000BA9713D7F701BA97858713F7F70FB7278D
:1055A000002093874769A38CE70009A8B72700204C
:1055B0009387476913076006A38CE70003C7C18878
:1055C0008547630DF70403C7C1889D476308F70447
:1055D00003C7C1888D476303F70403C7C188914798
:1055E000630EF70203C7C188A5476309F70203C723
:1055F000C188A9476304F702B7270020938747694A
:1056000083C797011307E005B307F74093F7F70F38
:10561000139787016187238AE18665A003C7C18844
:105620008D476301F70203C7C1889147630CF700F8
:1056300003C7C188A5476307F70003C7C188A94707
:105640006312F704B72700209387C76283C7D70286
:105650003E87B72700209387076683C7D702BA978C
:1056600013D7F701BA978587B307F04093F7F70F81
:105670009387E70593F7F70F139787016187238ACD
:10568000E18681A0B72700209387C76283C787027E
:105690003E87B72700209387076683C78702BA979C
:1056A00013D7F701BA978587B307F04093F7F70F41
:1056B0009387E70593F7F70F139787016187238A8D
:1056C000E1868387418793F7F70FE11793F7F70F89
:1056D000139787016187238AE18603978182954723
:1056E0006319F70003D7E180BD4763E4E700238A2D
:1056F0000186838751873E87838741879387270366
:1057000063CBE700838751873E87838741879387F1
:10571000E7FC635EF7028387518713D7F701BA97D7
:105720008587E207E18713F7F70F8387418793D6D1
:10573000F701B6978587E207E18793F7F70FBA97E6
:1057400093F7F70F139787016187238AE186038711
:1057500041879307100463D7E70013071004238AD7
:10576000E18619A8038741879307F0FB6356F7008A
:105770001307F0FB238AE18603874187A38AE1862A
:105780000100B240224441018280011122CE00106A
:10579000A30704FE51A8230704FEA5A80346F4FEB0
:1057A0008347E4FE370700209306C00BB306D602FA
:1057B000130787163697BA9703C7070083C701896F
:1057C0006364F7020346F4FE8347E4FE37070020D4
:1057D0009306C00BB306D602130787163697BA97FF
:1057E0007D572380E7000DA00346F4FE8347E4FEC7
:1057F000370700209306C00BB306D602130787169F
:105800003697BA97238007008347E4FE850723076E
:10581000F4FE0347E4FE9307B00BE3F1E7F8834798
:10582000F4FE8507A307F4FE0347F4FE9307100375
:10583000E3F3E7F60100724405618280011122CE94
:105840000010A30704FE85A00347F4FEB72700203D
:105850009387C762BA97238007000347F4FEB727F0
:10586000002093870766BA971307B0FB2380E700F1
:105870008347F4FE139737009547B347F70293F732
:10588000F70F8346F4FE9387470213F7F70FB72706
:1058900000209387876CB6972380E7008347F4FE48
:1058A0008507A307F4FE0347F4FE93071003E3FD07
:1058B000E7F82385018803C7A188A384E1882383AF
:1058C000018803C76188A382E1882384018803C714
:1058D0008188A383E188A30704FE7DA88347F4FEA3
:1058E000138701883E97230007008346F4FE138741
:1058F0000188BA9703C7070093878187B6972380EB
:10590000E7008347F4FE372700209396170013071C
:1059100087703697A30007000347F4FE3726002060
:105920009396170093078670B69783C61700B7271C
:1059300000201316170093878770B2972380D70033
:105940008347F4FE3726002093161700130786704E
:105950003697834607003727002013961700130752
:10596000C76F3297A300D7008346F4FE3726002086
:10597000139717009307C66FBA9703C71700B72787
:10598000002086069387C76FB6972380E70083477A
:10599000F4FE8507A307F4FE0347F4FE9147E3FFF7
:1059A000E7F20100724405618280011106CE22CC2B
:1059B0000010EFF0BFE8930710032317F4FED9AAF5
:1059C00085472316F4FE45A00316E4FE8317C4FEA4
:1059D000370700209306C00BB306D60213078716BD
:1059E0003697BA9783C70700B5E70316E4FE831717
:1059F000C4FEFD17370700209306C00BB306D6027E
:105A0000130787163697BA9783C70700A1E70316CF
:105A1000E4FE8317C4FE8507370700209306C00BFA
:105A2000B306D602130787163697BA9703C707003F
:105A30009307F00F6310F7028316E4FE8357C4FE4A
:105A400013F7F70FB72700209387C762B697238015
:105A5000E70005A08317C4FEC207C1838507C207FC
:105A6000C1832316F4FE0317C4FE9307E005E3DDAC
:105A7000E7F49307A00B2316F4FE45A00316E4FEFB
:105A80008317C4FE370700209306C00BB306D60267
:105A9000130787163697BA9783C70700B5E703162B
:105AA000E4FE8317C4FE8507370700209306C00B6A
:105AB000B306D602130787163697BA9783C707002F
:105AC000A1E70316E4FE8317C4FEFD173707002085
:105AD0009306C00BB306D602130787163697BA97FC
